:100000000C948D020C94AA020C94AA020C94F81E73
:100010000C94AA020C94AA020C94AA020C94AA02B0
:100020000C94AA020C94AA020C94BE1B0C94961C6D
:100030000C94C40A0C94AA020C94AA020C94AA026E
:100040000C94AA020C94AA020C94AA020C94AA0280
:100050000C94AA020C949A1B0C94AA020C94AA0267
:100060000C94AA020C94AA020C94AA020C94AA0260
:100070000C94AA020C94AA020C94AA020C94AA0250
:100080000C94AA020C94AA020C94AA020C94AA0240
:100090000C94AA020C94AA020C94AA020C94AA0230
:1000A0000C94AA020C94AA020C94AA0200AF00AE0F
:1000B00005010902A10185020901A1000509190133
:1000C00029081500250195087501810205010930EF
:1000D00009311581257F950275088106093815813A
:1000E000257F950175088106050C0A3802158125C2
:1000F0007F950175088106C0C005010906A10105AB
:100100000719E029E7150025019508750181029579
:1001100001750881010507190029FF150026FF0058
:1001200095067508810005081901290515002501A6
:10013000950575019102950175039101C009023B76
:1001400000020100A0FA09040000010301010009F6
:100150002111010001224400070581030800010963
:1001600004010001030000000921110100012249DE
:1001700000070582032000011201000200000008B0
:10018000D8042DEB0001010200010E034C006900B0
:100190006C00790035003800000010036C00690025
:1001A0006C00690075006D00730000000403090411
:1001B00000DA0281FFD9F1DB20A4A62EAF00A0C097
:1001C000D30000A1C8D30000AED580A81F408D1475
:1001D000200029001E001F002000210022002B000B
:1001E00014001A00080015001700E10004001600B2
:1001F000070009000A00E0001D001B0006001900AE
:1002000005000000E200A045A1442C003400460097
:1002100027002600250024002300340213001200CA
:100220000C0018001C00300036140F000E000D00EA
:100230000B002F002D0037003600100011000000C9
:100240000718390028002A003502290031001E0055
:100250001F00200021000F002B0014001A000800CE
:1002600015001000E10004001600070009000D0051
:10027000E0001D001B0006001900000000520A00EB
:10028000E2002C0005004600260025002400230083
:1002900022000000130012000C0018001C003502A0
:1002A000000000000E0000000B00410040003F0075
:1002B0003E000000110000004500E70028002A0071
:1002C0001700290000000C130C01090509012B007F
:1002D000140131001A0031041500E1001601040078
:1002E000160007000900E0001D021D0001000600C5
:1002F0001900000000525104A1442C0006054600DC
:10030000070A190106011B0100000000000000009F
:10031000520000000000000000004F00510050009B
:1003200000000000000000000000000000000000CD
:100330000000000028002A00000029001E001F0005
:100340002000210022002B0014001A0009001300D5
:100350000500E10004001500160017000A00E00087
:100360001D001B000600010019000000E200A0456E
:10037000A1442C003400460027002600250024005C
:100380002300340235021C0018000F000D0030005D
:1003900012000C000800110010002F002D00370083
:1003A00036000B000E0000000718390028002A0054
:1003B000361431021E021F022002210222023D04D5
:1003C00051051005180517131701E10004011B0161
:1003D000060119010A08E0001D011D131601111381
:1003E0004C0000002C08E3000000160A350046020D
:1003F0002E0027022602380024022E020C014F0193
:10040000520050012B08250205014F0051005000F9
:10041000090100522D023302330022143802000079
:100420000F081601E1012C042302000001520252C0
:10043000035200000000000000002B133E002B01BF
:10044000000000000000D4001A05D10000000000E8
:1004500000000000D2000000000000000000005278
:1004600000002C00000000005600610060005F00EA
:100470005400000057005E005D005C00550037022C
:1004800085005B005A0059004A00360267004C00A4
:10049000630062004D0000000000000058002A00C8
:1004A00000000000000000000000000000003A0012
:1004B0003B003C003D003E003F0000001E001F00CE
:1004C000200021002200000000001E0D1F0D200D45
:1004D00000000000000000000052000000000000CA
:1004E0000000000000000000000045004400430040
:1004F00042004100400000002700260025002400A3
:100500002300000000004D004A0000000000000031
:100510004F0A500A00000000000011241FBECFEF58
:10052000DAE0DEBFCDBF11E0A0E0B1E0EEE4F2E43E
:1005300002C005900D92A034B107D9F724E0A0E4E1
:10054000B1E001C01D92A636B207E1F70E94511733
:100550000C94E0200C94000090931E0480931D04E2
:1005600008959093200480931F04089521E030E0C3
:1005700002C0220F331F8A95E2F780911F049091E9
:100580002004822B932B0E94B102089521E030E0D9
:1005900002C0220F331F8A95E2F720953095809193
:1005A0001F0490912004822393230E94B102089596
:1005B0009A3098F5863088F5E82FF0E086E0989F2D
:1005C000E00DF11D11248E2F877041E001C0440F12
:1005D0008A95EAF783E0F695E7958A95E1F7EE0FBD
:1005E000FF1FEE0FFF1FE151FC4F20E030E070E0F5
:1005F0005191DF011197CB01022E02C0969587958C
:100600000A94E2F7817081958527842385278C934E
:100610002F5F3F4F2430310559F708959A3078F510
:10062000863068F5E82FF0E086E0989FE00DF11D38
:1006300011249E2F977083E0F695E7958A95E1F750
:10064000EE0FFF1FEE0FFF1FE151FC4F40E050E0A7
:1006500080E0219130E0092E02C0369527950A945A
:10066000E2F721703327042E01C0220F0A94EAF723
:10067000822B4F5F5F4F4430510559F7089580E05A
:1006800008958091260490912504981301C008953F
:100690008F5F8770FACF9091210480958923809392
:1006A0002104282F277021110DC0891759F090912E
:1006B000230492FF07C08695869586950E94C60200
:1006C000109221040895982F909580911A048923FF
:1006D00080931A0408957A30B8F46630A8F487300D
:1006E000B0F4E62FF0E096E0799FE00DF11D1124C3
:1006F0009CE3899FE00DF11D1124EE0FFF1FEE52C8
:10070000FE4F85919491089580E090E0089581E0F6
:10071000FCCF803E9105D1F1C8F48133910509F4F5
:100720007FC048F48932910509F46FC08A3291057F
:1007300009F47DC0089589339105E1F0823891056F
:10074000C9F08533910509F45BC00895843E910595
:10075000D1F148F4823E910531F1833E910541F19A
:1007600081EE90E00895863E9105C1F1873E9105A6
:10077000E1F10895209122042370211165C0209198
:10078000230423FF14C089E290E0089520912204FD
:1007900020FD43C03091230430FF09C024FF4EC028
:1007A00080E090E008952091220422FDF7CF089583
:1007B0002091220422FD45C03091230430FD44C025
:1007C00024FFF5CFEDCF2091230421FFF0CF8091BE
:1007D000220484FDE5CF87EE90E008952091220465
:1007E00023FFE5CF24FDDCCFF6CF2091220423FDAB
:1007F0002EC03091230431FFE3CF84EE90E00895C2
:100800002091220425FFD3CFBECF2091220425FDC5
:1008100021C02091230423FFCACF89E390E00895EB
:100820002091220426FFC3CF8AE290E00895209110
:10083000220426FFBCCF81E390E0089583EE90E090
:10084000089582EE90E0089580EE90E0089586EE9F
:1008500090E0089585E390E0AACF9091220492FF62
:1008600010C041E0282F2471243009F040E031E02D
:10087000282F2871283009F030E0431711F02CE0C0
:10088000822793FF10C041E0282F2471243109F002
:1008900040E031E0282F2871283109F030E043177B
:1008A00011F02CE082273091230430FF10C051E07A
:1008B000282F2171213009F050E041E0282F2871C4
:1008C000283009F040E0541711F029E0822731FF69
:1008D00010C041E0282F2171213109F040E031E0C2
:1008E000282F2871283109F030E0431711F029E052
:1008F000822794FD877E08951F93CF93DF930E94F4
:100900008903EC01811522E5920708F04DC081159D
:1009100040E5940708F0C5C0883E910588F0811530
:1009200050E4950728F199270E948903CC27DF70AE
:10093000C82BD92BD06ACE01DF91CF911F9108959A
:10094000803E9105C0F7853A910550F4049798F7D9
:1009500081E0219709F080E0C82F80E0D82FEBCF0D
:100960008D5C9109D065439730F3C0E0D0E0E3CFD0
:10097000C11590E2D90708F0ADC0CE019A95811556
:100980009F4198F78D2F0E942D04182FCE01992793
:100990000E948903212F30E0322F2227E901CC2742
:1009A000DF71C82BD92BC7CF803842E59407C0F53B
:1009B000803652E5950708F055C0C03482E5D80767
:1009C000B0F08C2F86958695877020E2829FC001BB
:1009D0001124C37021E030E0A90102C0440F551F6B
:1009E000CA95E2F7EA01C82BD92BDC68A4CFC03244
:1009F00052E5D50780F58C2F8695869520E2829F5B
:100A0000C0011124C37021E030E0A90102C0440FED
:100A1000551FCA95E2F7EA01C82BD92BDD688BCFA9
:100A2000803C52E5950758F48F71C03AD24578F56D
:100A300090E0982F8827EC01C46FD06A7CCF805C4F
:100A40009245809708F091CFDC2FCC27CC27DF711F
:100A5000C06FD06A70CFCF71D0E0DC2FCC27C16FD0
:100A6000D06A69CF86958695877020E2829FC00103
:100A70001124C37021E030E0A90102C0440F551FCA
:100A8000CA95E2F7EA01C82BD92BDA6854CF0E9445
:100A90002D04C82FD0E0DC2FCC27CC27DF71D0620B
:100AA0004ACF8F710E942D0465E0D695C7956A954F
:100AB000E1F7CF70D0E0DC2FCC27282F30E084FF87
:100AC00005C054E0220F331F5A95E1F7C22BD32BF8
:100AD000D06931CF8D2F8F710E942D04182FCE0138
:100AE00099270E948903212F30E0322F22272227C5
:100AF0003F71282B392BE901D2CFA0E0B0E0E3E829
:100B0000F5E00C9430208C01E0901F04F09020045C
:100B100080911D0490911E04E82AF92ACFE0D0E0CC
:100B2000CC24C394D12CC6010C2E02C0880F991F6F
:100B30000A94E2F78E219F21892B49F4219798F797
:100B4000B12C8B2DCDB7DEB7E9E00C944C20BC2E38
:100B5000B8018C2F0E946B030E947C04019771F3F3
:100B6000F0CF0F931F93CF93FC01858100811181FA
:100B7000882391F0662381F0C8010E947D05C82F6B
:100B8000682FC8010E94D802B8018C2F0E946B0305
:100B9000CF911F910F910895C8010E940E03C82F95
:100BA000F3CFCF93DF93D82FC92F0E947D056D2FF0
:100BB0007C2F0E946B030E947C04DF91CF910895EB
:100BC000FC0184818823A1F0808191810E94D1055C
:100BD000282F92959F70963091F060F4925F9F70ED
:100BE000923030F481E0203F79F030F4283E30F04C
:100BF00080E004C09A5FF3CF243FD1F7089581E0ED
:100C0000283E18F0213FF9CF0895089580E0089517
:100C1000F894E82FE295EF70F0E041A18F7021E0A9
:100C200030E0B90102C0660F771F8A95E2F7CB0169
:100C3000962F9095942391A392A1892B82A37894C7
:100C40000895282F35EB2303C001112497FF04C01A
:100C500080589109892F089580589F4FFBCF80912C
:100C6000110480FD14C081FD14C082FD16C0809166
:100C70001004882381F08E3180F420E5829FC0012A
:100C800011246EE170E00E945E20862F089584E1B9
:100C9000089588E2089588E0089580E50895809198
:100CA000110480FD17C081FD17C082FD19C080911D
:100CB0000F04882399F0883298F428E0829FC001BD
:100CC000112468E270E00E945E206115710551F008
:100CD000862F089562E0FCCF64E0FACF61E0F8CFA0
:100CE00068E0F6CF81E008958091DD03882359F014
:100CF000E091E503F091E603309729F00190F0814F
:100D0000E02D0995089580E008959C01FC0132963C
:100D10008FEF90E04191461751F08F3F19F4411148
:100D200001C0892F9F5F9630A9F78F3F09F408957E
:100D3000280F311D87FD3A95F901628308959C01C2
:100D4000FC013296285F3F4F8191861303C0DF017B
:100D500011971C92E217F307B9F70895A4E0B0E0E9
:100D6000E4EBF6E00C9437208FB7F8942091C6039B
:100D70003091C7034091C8035091C90329833A8336
:100D80004B835C838FBF69817A818B819C812496A0
:100D9000E2E00C945320A4E0B0E0E1EDF6E00C9426
:100DA00037208091DD03882371F00E94AE066983AD
:100DB0007A838B839C8369817A818B819C81249641
:100DC000E2E00C9453200E94AE0669837A838B8301
:100DD0009C838091DF039091E003A091E103B091A7
:100DE000E20329813A814B815C81280F391F4A1F18
:100DF0005B1F29833A834B835C83DDCF80916B013A
:100E0000089508950895FC019B01809161019091DE
:100E100062018617970740F0672B29F48091E8005C
:100E20008E778093E800C90140E0009741F44111BA
:100E300006C08091E80082FF2FC080E008952091D5
:100E40007A012223A9F12530A9F12091E80023FDA0
:100E50002DC02091E80022FDECCF2091E80020FF7A
:100E6000E4CF3091F3002091F200009719F0283080
:100E7000310558F041E02830310509F040E020917B
:100E8000E8002E772093E800D0CF41914093F10005
:100E900001972F5F3F4FE9CF80917A01882341F07E
:100EA000853041F08091E80083FFC3CF81E0089551
:100EB00082E0089583E0089580915B0187FF13C06D
:100EC0008091E80082FF06C08091E8008B778093D4
:100ED000E80004C080917A018111F2CF08958091D9
:100EE0007A018823D9F38091E80080FFF8CF8091C0
:100EF000E8008E77ECCF2091E4003091E50095E694
:100F0000A9018091EC008170882331F08091E80084
:100F100080FF06C080E008952091E80022FD1BC0FC
:100F200080917A01882391F0853091F08091EB00D7
:100F300085FD10C02091E4003091E5004217530771
:100F400001F391509111DCCF84E0089582E008957F
:100F500083E0089581E00895E8EDF0E080818E7FE0
:100F600080831092E2001092DA001092E100A0EE6D
:100F7000B0E08C9181608C9380818F77808319BCE5
:100F8000A7EDB0E08C918E7F8C9380818F7E8083E3
:100F900010925A010895FC01AC014B5F5F4F8FEF37
:100FA00091E32191822728E030E087FF0BC0880F72
:100FB00089272150310921153105B9F7E417F507C3
:100FC00081F70895880FF5CF982FE42FE270909362
:100FD000E900891308C0762F242F50E0E11111C0D9
:100FE00091E0980FF4CF7091EC002091ED005091BA
:100FF000F00021FD06C09F5F973049F78093E9001C
:1010000008953091EB003E7F3093EB003091ED007E
:101010003D7F3093ED003091EB0031603093EB0079
:101020007093EC002093ED005093F0002091EE00BF
:1010300027FDE1CF0895A0E0B0E0E1E2F8E00C94F4
:101040003120C8EDD0E088818F7E8883E7EDF0E025
:1010500080818160808384E082BF81E080935A0137
:1010600088818E7F888302EE10E0F8011082109252
:10107000DA0081EEC82ED12CF601108288818F779C
:10108000888388818068888388818F7D888319BC64
:1010900010927A0110925901109279011092580120
:1010A00090EEE92EF12CF70180818B7F808388817F
:1010B0008160888342E060E080E00E94E407F601FE
:1010C00080818E7F8083F801808181608083808130
:1010D00088608083F70180818E7F80838881806132
:1010E0008883CDB7DEB7E8E00C944D20E09126046C
:1010F0009091250427E0E91302C080E00895AE2F07
:10110000B0E02E9FF0011124E95DFB4F31813613D1
:1011100006C03081381303C03581341304C0FD018B
:101120003196E770E8CF81E008950F931F93CF9336
:10113000DF93EB018A0190917A01943079F58093E5
:10114000E9008FEF9091E80095FD07C095ED9A9525
:10115000F1F7000081508111F5CF8091E80085FF03
:101160001DC00E947B07811114C08091E80085FD9D
:1011700006C08091E8008E778093E800F2CF8881E6
:101180008093F100015011090115110511F021960C
:10119000ECCF8091E8008E778093E800DF91CF91CB
:1011A0001F910F910895CF93DF93D82FC92F48E057
:1011B00050E0682F792F81E00E94950888E0ED2F9C
:1011C000FC2FA3E6B1E001900D928A95E1F7DF9143
:1011D000CF910895BC0146E050E082E00E9495085E
:1011E0000895A0E0B0E0E7EFF8E00C942F20F82E8F
:1011F000E92EB62EA72E8A0180915601CC24C394E5
:10120000D12C8A3018F48AE0C82ED12CC1E0D0E06D
:101210006B2D7A2D8F2D9E2DF8010995811116C009
:101220002196CC16DD0694F0CC9FC001CD9F900D89
:10123000900D112420E030E045E34A95F1F70000DD
:101240002F5F3F4F28173907B9F7E2CFCDB7DEB789
:10125000EAE00C944B209091230492FB222720F982
:10126000281779F080FB92F990932304609122046F
:101270007091230484E090E00E94CA2082E00E94E2
:101280004B03089580911A0490912404892B409176
:101290001B04442389F090E024E431E0F9015081FB
:1012A0002F5F3F4F51119F5F51E02A343507B1F74F
:1012B000911110921B04842B8093420148E050E06E
:1012C00067EE73E082E491E00E947820892BA9F018
:1012D00088E0E2E4F1E0A7EEB3E001900D928A9598
:1012E000E1F7E091E503F091E603309731F00280F9
:1012F000F381E02D82E491E009950895882339F087
:1013000090911A04892B80931A040E94420908952F
:10131000882321F00E9463030E9442090895A8E0F7
:10132000B0E0E5E9F9E00C9436204091C203509119
:10133000C3036091C4037091C5032FB7F8948091E3
:10134000C6039091C703A091C803B091C9032FBFF2
:10135000841B950BA60BB70B11E084369105A105F4
:10136000B10578F10E94CB06DC01CB010296A11DEC
:10137000B11D89839A83AB83BC83809124019091B2
:10138000250186539C4F20912301422F50E02530A8
:1013900010F044E050E0BE016F5F7F4F0E94852057
:1013A00082E090E00E949E1F182F882351F00E9437
:1013B000AE066093C2037093C3038093C4039093FB
:1013C000C503812F2896E3E00C945220A6E0B0E0FC
:1013D000ECEEF9E00C943420F62E072F80E090E03C
:1013E0000E949E1F182F882309F469C0809116015E
:1013F000482F50E0882311F041E050E06091170140
:101400007091180166537C4FCE0106960E9485208C
:101410004091D9035091DA036091DB037091DC03B2
:101420002FB7F8948091C6039091C703A091C80389
:10143000B091C9032FBF841B950BA60BB70B843645
:101440009105A105B10538F48BEC93E00E94CB0720
:101450009E818917A1F181E090E00E949E1F882360
:10146000C9F180911E01482F50E0863010F045E010
:1014700050E060911F017091200166537C4FCE01B6
:1014800001960E9485208BEC93E00E94CB079E8101
:10149000891320C00E94AE066093D9037093DA03CB
:1014A0008093DB039093DC0385E0FE013196A4ED8D
:1014B000B3E001900D928A95E1F781E00CC085E0E0
:1014C000EBECF3E0DE01119601900D928A95E1F7C5
:1014D0001111EACF80E095E0E4EDF3E0AF2DB02FFD
:1014E00001900D929A95E1F72696E5E00C94502034
:1014F000AB0124E630E0BC0188E70E94B51D9C01E9
:1015000081E0232B09F080E008958091BC038823BB
:1015100069F08091B903882349F062E070E08EEAB7
:1015200090E00E94780A81111092B9030895A4E016
:10153000B0E0EDE9FAE00C9437208091BC038823F9
:10154000F9F00E94AE06DC01CB01805A9541AF4F05
:10155000BF4F8093B5039093B603A093B703B093A6
:10156000B8038091B90381110BC062E070E08CEA8E
:1015700090E00E94780A882319F081E08093B903F3
:101580002496E2E00C9453201F921FB61F92112460
:101590008F939F93AF93BF9380917801811113C074
:1015A0008091C6039091C703A091C803B091C9036D
:1015B0004196A11DB11D8093C6039093C703A093CC
:1015C000C803B093C903BF91AF919F918F911F90B2
:1015D0001FBE1F9018952FB7F8948091C603909165
:1015E000C703A091C803B091C9032FBF08950E94FB
:1015F000EB0A2091140430911504232B222321F0AF
:101600008093BF039093C003209116043091170478
:10161000232B222321F08093BD039093BE03E091FE
:10162000E503F091E603309749F082E080931204DD
:101630000680F781E02D82E194E0099508952091DC
:1016400014049091170430911604662309F45AC0CB
:1016500040911504242B292B232B222331F098E0D1
:101660009093100491E090930F048D3C41F40E94FC
:101670002F068195809315040E94F70A0895E2E3EE
:10168000E80FE231C8F7F0E0EE51FF4D0C94722004
:101690000E942F06EFCF0E942F068195809314049D
:1016A000EBCF0E942F06FACF0E944F0680931604BC
:1016B000E3CF0E944F068195F9CF0E944F06819596
:1016C00080931704D9CF0E944F06FACF815D990B02
:1016D00021E030E001C0220F8A95EAF780911304DF
:1016E000822B80931304C8CF809111048160809372
:1016F0001104C2CF809111048260F9CF809111044E
:101700008460F5CF8D3C59F48091150487FF0DC09E
:1017100010921504222359F41092100408C08E3C34
:1017200081F48091150418169CF3222381F0809196
:10173000160490911704892B81119ECF10920F04EB
:101740009BCF8F3C41F427FFF0CF1092140480917F
:1017500015048823E0CF803D19F41216B4F3E5CFC9
:10176000893D29F413160CF710921604DECF8A3D3A
:1017700019F437FFDACFF8CF8B3D29F497FFD5CF97
:1017800010921704D2CF8C3D19F41916CCF3CDCF9B
:101790009FE2980F983090F4815D990B41E050E002
:1017A000BA0102C0660F771F8A95E2F7CB018095D8
:1017B00090911304892380931304B7CF8D3D31F4A6
:1017C000809111048E7F80931104AFCF8E3D21F460
:1017D000809111048D7FF7CF8F3D09F0A6CF8091C6
:1017E00011048B7FF0CFCF93C82F8823A1F08CEF0B
:1017F0008C0F813A90F4E4E4F1E08191C81739F15B
:1018000081E0EA34F807C9F76C2F82E491E00E9486
:1018100085060E944209CF91089580E28C0F88309E
:1018200068F4C77021E030E001C0220FCA95EAF7E2
:1018300080911A04822B80931A04EBCF83E38C0FE0
:10184000833148F761E08C2F0E941F0BE4CF6C2F8F
:1018500082E491E00E949F060E944209D5CF88232E
:1018600009F19CEF980F913A40F4682F82E491E0DF
:101870000E949F060E944209089590E2980F9830B6
:1018800050F4877091E001C0990F8A95EAF7892F8B
:101890000E946303EFCF93E3980F933118F460E055
:1018A0000E941F0B0895CF9310921A04C6E0E4E43F
:1018B000F1E0DF018C2F1D928A95E9F71092240444
:1018C0000E944209E2E1F4E0DF011D92CA95E9F7C6
:1018D0001092100410920F04109211040E94F70A43
:1018E000CF9108950E94530C2FEF84E39CE0215088
:1018F00080409040E1F700C0000088E19AE00FB618
:10190000F894A895809360000FBE90936000FFCF7D
:10191000AAE2B0E0EEE8FCE00C9436208BE591E022
:10192000FC0101962091F100208321E0833692078B
:10193000B9F780915C01893009F456C0C8F482304F
:1019400009F4B2C0833009F481C0813071F1809113
:10195000E80083FFE6C080915B0190915C019A30C2
:1019600008F0DFC0E92FF0E0EC50FF4D0C9472203E
:101970008A3009F488C08B3051F780915B01813245
:1019800031F780915F0190916001892B01F780917F
:10199000E800877F8093E8000E945C0780915D01EA
:1019A000809300010E94530CD2CF80915B01813A59
:1019B00071F68091E800877F8093E80080915F0155
:1019C00090916001892B61F060E080E090E070E030
:1019D0000E9403078091E8008B778093E800B7CFDF
:1019E00068E083E691E0F3CF80915B01813209F0FA
:1019F000AECF80915F0190916001029708F0A7CF70
:101A00008091E800877F8093E8008091E80082FF62
:101A100018C09091F3008091F200029731F4809108
:101A2000F100813011F0863021F48091F100809333
:101A30006B018091E8008B778093E8000E945C073F
:101A400086CF80917A018111E0CF81CF80915B01B7
:101A5000813A09F07CCF80915F0190916001892BE0
:101A600009F075CF8091E800877F8093E80080912E
:101A7000E80080FFFCCF809100018093F10080910D
:101A8000E8008E77D9CF80915B01813209F05FCF7A
:101A90008091E800877F8093E8000E945C07809136
:101AA0005E018093570153CF80915B01813A09F029
:101AB0004ECF8091E800877F8093E8008091E80016
:101AC00080FFFCCF80915701D8CF803889F08238D1
:101AD00041F580915F018F70873018F58093E900A0
:101AE0008091EB0085FB882780F91092E90006C001
:101AF0008091580190917901911182609091E80054
:101B0000977F9093E8008093F1001092F10080910C
:101B1000E8008E7723C0811116C080915D0181306D
:101B200011F18091E80083FF0AC08091E800877F6F
:101B30008093E8008091EB0080628093EB00AA968E
:101B4000E3E00C945220823061F780915D0188239C
:101B500089F01092E9008091E800877F8093E80087
:101B60000E945C07DECF81E0933009F080E0809333
:101B70007901EFCF80915F018F702FEF280F263012
:101B800080F68093E9002091EB0020FFE2CF9330B4
:101B900031F48091EB0080628093EB00DACF90917A
:101BA000EB0090619093EB0021E030E0A90102C0CE
:101BB000440F551F8A95E2F74093EA001092EA001D
:101BC0008091EB008860E8CF8111ABCF10915D016F
:101BD0001F778091E3008078812B8093E3008091D0
:101BE000E800877F8093E8000E945C078091E8000E
:101BF00080FFFCCF8091E30080688093E30083E066
:101C0000111101C082E080937A018BCF805882301D
:101C100008F087CF40915D0150915E014C3D83E01B
:101C2000580799F583E08A838AE289834FB7F8944D
:101C3000DE01139620E03EE051E2E32FF0E0509306
:101C40005700849120FF03C082958F703F5F8F7093
:101C50008A30C8F0895C90E08D939D932F5F24318A
:101C600061F74FBF8091E800877F8093E8006AE2C8
:101C700070E0CE0101960E9403078091E8008B7707
:101C80008093E8004ECF805DE6CF20915F013091D8
:101C90006001852F99278330910509F160F4813027
:101CA000910509F472C0029709F03BCF8BE390E0F5
:101CB000EDE3F1E029C08132910509F45AC0829721
:101CC00009F02FCF2115310509F469C02130310504
:101CD00009F027CF89E490E0E0EBF0E015C0CA01FD
:101CE00099274130B1F18230910509F43AC0892B2E
:101CF00009F017CFECEAF1E0E4918E2F90E0ECEAE6
:101D0000F1E0009709F40DCF2091E800277F2093A0
:101D1000E80020916101309162018217930708F475
:101D20009C0140E02115310509F03EC041113CC045
:101D30008091E80082FDA1CF80917A01882309F487
:101D40009CCF853009F499CF8091E80083FFF0CFD4
:101D500094CFEAE9F1E0E4918E2F90E0EAE9F1E036
:101D6000D0CFEAE8F1E0E4918E2F90E0EAE8F1E0EC
:101D7000C8CF2115310571F02130310509F0D1CEE0
:101D800089E090E0E8E6F1E0BFCF82E190E0E8E7AB
:101D9000F1E0BACF89E090E0EFE4F1E0B5CF84E480
:101DA00090E0E9EFF0E0B0CF80917A01882309F468
:101DB00064CF853009F461CF8091E80083FD5DCF69
:101DC0008091E80082FDB4CF8091E80080FFAACF27
:101DD0009091F3008091F2002115310519F08830BF
:101DE000910550F041E0089709F040E08091E8004B
:101DF0008E778093E80096CF44914093F10031961E
:101E0000215031090196E8CF803809F08ACE8091BF
:101E1000E800877F8093E800809159018093F1006A
:101E200076CE81117ECE10915D01123008F079CE10
:101E30008091E800877F8093E800109359010E9409
:101E40005C07112381F084E080937A0142E061EC29
:101E500081E00E94E40742E261EC82E00E94E40734
:101E600080917A015ECE8091E30087FDECCF81E026
:101E7000EBCF9C014FB7F8948091C6039091C703B4
:101E8000A091C803B091C9034FBF821B930B089563
:101E90000F931F93CF93DF93C62FD42F122F882336
:101EA000A9F0609318040E94EB0A90935501809367
:101EB0005401C77081E001C0880FCA95EAF70E94FB
:101EC0007E09DF91CF911F910F91089580911804A1
:101ED000681338C080915401909155010E94390FC8
:101EE0008639910578F5CD130FC0812F0E94F30B31
:101EF000812F0E942F0CD77081E001C0880FDA95E6
:101F0000EAF70E948809DDCFC77001E0802F01C089
:101F1000880FCA95EAF70E94880980E28D0F883001
:101F200050F48D2F877001C0000F8A95EAF7802F3B
:101F30000E947E09DACF812F0E94F30B812F0E942D
:101F40002F0CBFCFC77081E001C0880FCA95EAF798
:101F5000D8CFA0E0B0E0EFEAFFE00C9431208C0194
:101F6000FC0184818823B1F161E0C8010E94B105C0
:101F7000EC01F8018581C13AF4E4DF0779F0C03A59
:101F800025E4D20761F1FE01E851FC47E730F10595
:101F900008F0B5C0E250FF4D0C947220F801968114
:101FA000903108F442C0882309F442C080E490E0F4
:101FB0000E94B102809121048770882359F0F801B2
:101FC0008581882339F08091230482FF03C082E059
:101FD0000E944B03CDB7DEB7E8E00C944D20F8012A
:101FE0009681903110F1882319F180E290E0E0CFE2
:101FF00026E241EE61EE0E94480FDCCF27E245EE7B
:1020000065EEF9CF26E241EE60EEF5CF27E245EE30
:1020100064EEF1CF26E241EE62EEEDCF27E245EE2F
:1020200066EEE9CF28E241E0EBCF8111109218046F
:10203000F8018581E080F180882309F4ABC1C701F4
:102040000E947D05C82F682FC7010E94D802B701E2
:102050008C2F0E946B030E947C04E82EC92FF8018C
:10206000C580D680D2948FE0D822809121048770D9
:10207000882309F1FC2CCC20F9F0892F807F803453
:1020800069F080E28E0D8830B0F0892F807E80323A
:1020900029F4F1E0FE1578F4DD2069F08091230445
:1020A00082FF09C082E00E944B0380912104877067
:1020B000FF24F3948111F12C8C2F82958F7088303E
:1020C00009F445C208F08AC1843008F068C1DC2FE9
:1020D000DF70823008F493C1C07FC03211F0D29516
:1020E000D07FEE2009F4C1C131E0E31609F409C242
:1020F000CC2009F415C2DD2009F4D5C195C18111A8
:102100000EC0C631DC4709F093CF8091190469E213
:10211000811165E382E491E00E949F06EBC010927A
:102120001804CE019057839708F0CFC084E090E068
:102130000E9496209093230480932204FE01E15094
:10214000F047E232F10520F4EB5FFE4D0C94722073
:102150008091220481608093220460912204709116
:10216000230484E090E00E94CA200E94530C22CFF6
:1021700080912304886080932304EFCF8091220410
:102180008260E9CF809122048460E5CF80912204AF
:102190008860E1CF809123048160EDCF809123049A
:1021A0008260E9CF809122048061D5CF80912204A2
:1021B0008062D1CF809122048064CDCF0E94530CE5
:1021C000809122048068C7CF809122048C60C3CFA5
:1021D000809123048360CFCF809122048E7FBBCF78
:1021E00080912304877FC7CF809122048D7FB3CF56
:1021F000809122048B7FAFCF80912204877FABCF69
:10220000809123048E7FB7CF809123048D7FB3CF3D
:10221000809122048F7E9FCF809122048F7D9BCF5F
:10222000809122048F7B97CF0E94530C80912204CF
:102230008F7791CF80912204837F8DCF809123046B
:102240008C7F99CF8091220482FB992790F921E01D
:10225000922790FB82F990FB83F97DCF8091230434
:10226000982F909591708E7F892B90FB81F983CF69
:1022700090912204892F8F7B96FF80646CCF0E94FF
:10228000530C90912204892F97FB87F9805863CFD4
:1022900061E08EE090E00E94AC205FCF60E0F9CF7B
:1022A00090912204892F8F7E94FF806154CF90916A
:1022B0002204892F8E7F90FF81604DCF909123045F
:1022C000892F877F93FF886056CFC6312CE7D207CE
:1022D000A1F480911A048A7A91E0811101C090E002
:1022E0009093190465E3811101C069E282E491E0F1
:1022F0000E9485060E9442095DCECA353CE7D3079D
:1023000009F444C048F5C1309CE7D90709F43CC042
:10231000C330ECE7DE0791F1C115DC4709F088CE48
:102320000E94530C8FEF94E3ECE081509040E0402A
:10233000E1F700C0000087E797E7909301088093DA
:10234000000888E19AE00FB6F894A89580936000A1
:102350000FBE90936000FFCFCB352CE7D207C1F0C2
:10236000CC35DC4709F064CE8091230482FB8827BA
:1023700080F991E089270E942B095ACE6FEF7FEFF9
:1023800080E090E00E94CA200E94720C81E0F3CFAE
:1023900080E0F1CFC7010E940E03C82F58CE8530D0
:1023A00009F4D0C0FF20A9F08091210480FD11C064
:1023B000F80115828695869586950E94B602C80119
:1023C0000E94A90F809121048695869586950E948A
:1023D000C60260E0C8010E94B105FCCD893009F455
:1023E00042C18A5F8F708230E8F622EFE2124CC160
:1023F0008C2F8F71C11045C10E94B602DDC0C03163
:1024000010F0D295D07FCC20B9F0DD2369F080E2C6
:102410008E0D883010F0E11009C080911A048D2BC8
:1024200080931A040E9442098E2D2FC080912404AB
:102430008D2B80932404F6CF8E2D0E942F0CDD234C
:1024400009F4B0CF80E28E0D883010F0E11004C0A6
:102450008D2F0E94630306C0D095809124048D23A4
:10246000809324040E9442099DCF8091230482FD21
:1024700016C0CC2069F0DD2339F080911A048D2B31
:1024800080931A040E94420980E00E94F30B8ACFD5
:1024900080E00E942F0CDD2309F484CFD9CFCC201B
:1024A000A1F0D11004C08D2F0E947E097BCF81E066
:1024B000D81278CF80911B049D2F9823D91709F447
:1024C00071CF8D2B80931B046DCFD1106BCF8D2FCF
:1024D0000E94880990911B048D2F8923882329F05D
:1024E0008D2F8095892380931B0480911C049D2F40
:1024F0009823992309F456CFD095D823D0931C0460
:1025000051CFCC2029F095E09D1508F44BCFCBCFCF
:10251000E4E0ED1508F446CF8D2F0E94880942CFE4
:10252000DD20D1F3F9E3EF1209C02FEF37EE83E09E
:10253000215030408040E1F700C000008E2D0E9405
:102540002F0C30CF6C2D8E2D0E941F0B2BCF8C2F7C
:102550008370811142C0C1102FC04E2D4295469507
:102560004770440F440F2E2D2F7030E0042E02C010
:10257000220F331F0A94E2F780E090E0E4FE09C0E6
:102580008FE090E002C0880F991F4A95E2F780958E
:102590009095C695C695C370C230B1F0C33089F02E
:1025A00040911D0450911E04C13049F0822B932BA1
:1025B000842395230E94AC020E947406F3CE242B40
:1025C000352B822B932BF6CF822B932B20911D043E
:1025D00030911E0482279327EDCFCC2091F1C0FFCC
:1025E000EBCF4E2D429546954770440F440F2E2D4C
:1025F0002F7030E0042E02C0220F331F0A94E2F73E
:1026000080E090E0E4FE09C08FE090E002C0880F17
:10261000991F4A95E2F780959095C695C695C37027
:10262000C230C1F0C33099F040911F045091200492
:10263000C13059F0822B932B842395230E94B10241
:10264000BBCF823008F4B8CFCCCF242B352B822BD4
:10265000932BF4CF822B932B20911F0430912004D5
:1026600082279327EBCFCF70CC2039F08C2F0E949C
:10267000B6028E2D0E947E099FCF8E2D0E94880962
:102680008C2F0E94C60298CF92EF9E1588F0E0EF43
:10269000EE16D9F0F1EFEF1609F442C0CC2009F4A0
:1026A00061C0DD2009F45BC08E2D0E94F30B84CF46
:1026B00023EFE21619F134EFE31671F1C110F1CFF7
:1026C000D1105FC08C2F8F71DCCFCC20A1F084E0C3
:1026D0008D1508F471CFCF7181E090E0FC0102C04C
:1026E000EE0FFF1FCA95E2F780911F04909120041E
:1026F0008E279F27A3CFF5E0DF16EBCF80E090E099
:10270000CC2009F49BCFCF7181E090E002C0880F0C
:10271000991FCA95E2F792CF9091230492FD06C0CB
:102720008C2F8F71CC2009F4ACCF66CECC2061F019
:102730008C2F8F7192FF60CE98E0899F90011124B9
:1027400023602093210458CE81E00E944B03E1E0F6
:10275000ED1508F031CF82E00E944B032DCF8C2F76
:102760008F714ACEDD2009F4ADCFF9E3EF1209C035
:102770002FEF37EE83E0215030408040E1F700C07A
:1027800000008E2D0E942F0C17CF809165048031A0
:1027900078F480916404882359F0E0912604209114
:1027A00025043091600440915F0457E02E1301C06E
:1027B00008956E2F70E05E9FF0011124DF01A95D86
:1027C000BB4F14968C911497882361F111968C91CC
:1027D0001197831327C08C91841324C015968C9174
:1027E000159781111FC012968D919C91A091610443
:1027F000B09162048A1B9B0B8639910598F48091F5
:1028000065048F70806180936504E35DFB4F808178
:102810008F70806180838FE594E00E94A90F0E94F1
:1028200041030895FB013196E770C0CFADE0B0E001
:10283000ECE1F4E10C942C208C0186E0F801DE013F
:10284000189601900D928A95E1F7F801E080F580E5
:10285000A280B380C4808FE5882E84E0982E70908B
:102860006304711020C0CC20D9F0FF2009F40AC104
:10287000C8010E94E005882309F404C187E0F8013B
:10288000D40101900D928A95E1F7F1E0CF1206C0D4
:1028900080915F04909160040E94D1050E94C5134D
:1028A000FF24F39451C0D09064048091610490910E
:1028B00062049501281B390BDD2009F4C6C02639B6
:1028C000310508F09CC0CC2059F390916004C18080
:1028D00080916504803108F058C0C91214C09091ED
:1028E0005F049E1110C0F1104AC08F708061809308
:1028F00065048FE594E00E94A90F80916504F801BA
:102900008683F12C21C0F1103AC040E06C2D8E2D51
:102910000E94760840E06C2D8E2D0E947608F82EDD
:102920008111EFCF888599850E94D105292F2295A5
:102930002F70903470F49F702230A0F09923B1F082
:10294000F8019681903190F48F2D2D96EDE00C9446
:1029500048202A5F2F70223068F0C8010E94A90F1A
:10296000FD2CF2CF992311F0882371F3805E88301B
:1029700058F3F3CF803F40F3815F8230F9CF8091ED
:102980006504816080936504BCCFC91213C0909127
:102990005F049E110FC0F1100DC08683C8010E9414
:1029A000A90F87E0F801AFE5B4E001900D928A9598
:1029B000E1F776CFC8010E94E005882309F462C0E0
:1029C000FF2009F45FC080916504803278F0209187
:1029D0005F04309160043A832983BC82AB827D829C
:1029E0001E828F83CE0101960E94A90F87E0F80115
:1029F000AFE5B4E001900D928A95E1F74FCF809159
:102A00006504803150F48FE594E00E94A90F87E0BF
:102A1000F40111928A95E9F774CFCC2009F440CFE4
:102A20002091600491812913C5CF90915F049E117C
:102A3000C1CFF110BFCF8683C8010E94A90F87E0E4
:102A4000F40111928A95E9F72BCF26393105F8F672
:102A5000CC2009F425CFFF20A9F09091600481815A
:102A6000981306C080915F048E1102C087E09BCF4F
:102A7000C8010E94E0058111B9CF80916504816091
:102A800080936504C8010E94A90F0ACFABE1B0E0B2
:102A9000ECE4F5E10C9436204E8B5F8B688F798FD8
:102AA0008A8F9B8F9111109224041D8A86E0FE016B
:102AB0007696DE011F9601900D928A95E1F78B893B
:102AC000882329F061E0CE010F960E94B10587E0CE
:102AD000FE013F96DE01189601900D928A95E1F76E
:102AE000CE0108960E94161481112BC087E0FE01CA
:102AF0003896DE01119601900D928A95E1F72091AA
:102B00002504409126048C858823D9F030E0C90142
:102B100001968770992750E084179507E9F097E0B0
:102B2000929FD001939FB00D1124A95DBB4FFE0170
:102B3000319601900D929A95E1F7809325040E94B9
:102B4000410317E08091260490912504891312C057
:102B50006B96E3E00C9452200E94530C10922504D3
:102B60001092260487E0EFE5F4E0DF011D928A95DC
:102B7000E9F7E7CF189FC0011124895D9B4F0E94A0
:102B80001614882329F38091260490E0019687701B
:102B9000992780932604D6CFA6E0B0E0E2EDF5E1D8
:102BA0000C9435200E94EB0A8C018091E3039091F4
:102BB000E4038017910779F019821A820E94EB0AC8
:102BC000BC0149815A8180E090E00E944615109333
:102BD000E4030093E3032696E4E00C945120A3E180
:102BE000B0E0E5EFF5E10C942C201A821982FE0189
:102BF000339688E0DF011D928A95E9F78BE2A82ED3
:102C000081E0B82E8E010F5F1F4F4801EE24E39440
:102C1000F12C26E3C22E21E0D22EF50181915F0135
:102C20008F3F09F441C0F894E82FE295EF70F0E08F
:102C300021A18F70A70102C0440F551F8A95E2F7AA
:102C4000CA01922F982B91A392A18095892382A3E8
:102C5000789400C0E0E3F1E031E0712C21912F3F46
:102C600009F48AC0A22FA295AF70A05EB0E08C914B
:102C700090E02F7002C0959587952A95E2F78170B4
:102C800081117AC0832F782A330FCE16DF0631F7F1
:102C9000F501319780818F3F11F00E94080650EABC
:102CA0005A95F1F7D8017C920F5F1F4FB0E3AB1636
:102CB000B1E0BB0609F0B1CF4AE050E0B4018CE6C8
:102CC00091E00E9478200091770110E005581E4F96
:102CD000892B09F453C08AE0F401ACE6B1E001901D
:102CE0000D928A95E1F781E0809353010E94EB0AEF
:102CF00090935201809351018091DD03882309F460
:102D000095C01C861B86FE013D9683E0DF011D9267
:102D10008A95E9F7809156018A3008F051C07E010A
:102D2000BBE0EB0EF11C46EE59E0B701C8010E9472
:102D3000F1086701882309F467C04FE859E0B7013B
:102D4000C8010E94F108882309F45EC01092560160
:102D50008091760190E045E050E0B60185589E4FA5
:102D60000E94782021E020935001892B09F03FC078
:102D70006396EDE00C94482080E085CF809153016C
:102D8000882309F4B9CF80915101909152010E949A
:102D9000390F059708F4B0CF45E050E06CE671E0DC
:102DA000C8010E947820892B41F085E0ECE6F1E033
:102DB000D80101900D928A95E1F7109253019CCFB2
:102DC00080914E0190914F010E94390F843F9140B4
:102DD00008F0A5CF80915001882351F2FE013B9667
:102DE00085E0DF011D928A95E9F710925001A091CC
:102DF0007601B0E0A558BE4F85E0FE013B960190FC
:102E00000D928A95E1F7B4CF809156018F3F39F446
:102E10000E94EB0A90934F0180934E01DBCF8F5FAE
:102E2000809356018A3008F493CFF2CF85E0F80101
:102E3000ABECB3E001900D928A95E1F78BEC93E057
:102E40000E94CB078093CA03C090D003D090D103D7
:102E5000E090D203F090D30380914A0190914B010E
:102E6000A0914C01B0914D01C816D906EA06FB06A7
:102E700009F47ECFC0924A01D0924B01E0924C01FE
:102E8000F0924D010E94AE06C61AD70AE80AF90A66
:102E9000C092DF03D092E003E092E103F092E203FC
:102EA00067CFCDB7DEB761970FB6F894DEBF0FBE20
:102EB000CDBF85B7806885BF85B7806885BF84B77B
:102EC000877F84BF0FB6F894A895809160008861D1
:102ED00080936000109260000FBE80E890E00FB613
:102EE000F89480936100909361000FBE86E096E0B5
:102EF00090934101809340010E94AC070E941B08FF
:102F00008091E20084608093E200789480917A015D
:102F1000882399F08091E9001091EC001795112712
:102F200017958F70182B1092E9008091E80083FDAF
:102F30000E94880C1F701093E90082E084BD93E02A
:102F400095BD9AEF97BD80936E001092DF031092AB
:102F5000E0031092E1031092E2038091D8008061B7
:102F60008093D8002AE12A95F1F700C08091D9001A
:102F700080FFF3C181E08093DD038093DE038093C3
:102F800001010E94B01E809101018091010190E039
:102F9000811101C095E09093770185E0891B8093B2
:102FA00076010BE211E0D8018D918D018F3F11F078
:102FB0000E940806B1E000331B07A9F700E311E007
:102FC00076E3E72E71E0F72EF80181918F018F3FB4
:102FD00011F00E940806E016F106B1F78AE0EBE76F
:102FE000F1E0DF01782E1D927A94E9F7ECE6F1E04A
:102FF000DF011D928A95E9F780E090E00E9496201B
:10300000853E9E4F09F461C065EE7EEF80E090E062
:103010000E94CA2060E082E090E00E94AC2081E043
:1030200090E090931E0480931D0461E083E090E0A3
:103030000E94AC2060E074E184E090E00E94CA202D
:1030400060E086E090E00E94AC2060E087E090E0E5
:103050000E94AC2040E050E0BA0188E090E00E947D
:10306000BE2060E083E290E00E94AC2060E08CE053
:1030700090E00E94AC2060E08DE090E00E94AC20E7
:1030800019821A821B821C821D821E821F82188650
:1030900048E050E067E170E0CE0101960E949C207C
:1030A00040E050E0BA018FE190E00E94BE2040E095
:1030B00050E0BA018FE090E00E94BE2040E050E076
:1030C000BA0183E190E00E94BE2082E090E00E947D
:1030D0008E208093850184E090E00E94962090935A
:1030E00023048093220483E090E00E948E2090E0ED
:1030F0000E94AC021092B10380E8809390010E947C
:10310000341D6BE070E087EC91E00E94780A882320
:1031100009F43FC08091B10365E070E081FD28C1F2
:1031200082EC91E00E94780A882399F16DE070E0CA
:1031300080EB91E00E94780A882359F10E94AE0644
:1031400069877A878B879C87DC01CB01805A954100
:10315000AF4FBF4F8093B5039093B603A093B703CF
:10316000B093B803E1EBF1E080E092E0DF019C0175
:103170001D9221503040E1F78FEF9FEF9093B40301
:103180008093B30381E08093BC038093B9031092D2
:10319000B2038091DD03811102C00E94B31E82E060
:1031A00091E09093E6038093E50360E9262E61E0C9
:1031B000362ECE0101968987998B80917A018530D0
:1031C00049F480917A01853009F4D5C00E94530CEE
:1031D0000E9474060E94EF1506E811E05BE7E52EF9
:1031E00051E0F52ED701F80191918D912E163F06F1
:1031F00009F415C19817C1F38090DD03D12CF701B4
:10320000C1907F01D8019D908D019C1441F19C24B7
:10321000B12CAA24A394892D8A218823C1F0882067
:10322000B1F0B982DA820E94EB0A9C838B83B1E011
:10323000BD8391E08C2D8A21811101C090E09E8395
:1032400049815A816B817C818D810E944615B3949E
:10325000AA0CE6E0BE12DFCFF8013197C082D3940A
:10326000FAE0DF12CCCF0E94CB06D090BC03D11085
:10327000E0C00E94970A86E0E2E1F4E0A985B989FE
:1032800001900D928A95E1F7F090130400911404D7
:1032900010911504D0901604E090170410921404B5
:1032A000109215041092160410921704812F802B8F
:1032B000882379F08091BF039091C0030E94390F59
:1032C0009C01809110048111B9C12B30310508F0A7
:1032D000BBC18E2D8D29882379F08091BD039091FB
:1032E000BE030E94390F9C0180910F048111E4C13B
:1032F0002B30310508F0E6C180911304F81216C096
:1033000080911404882311F0801310C0909115044B
:10331000992311F019130AC020911704211106C036
:1033200020911604211102C0892B81110E94F70AF5
:1033300086E0E985F989A2E1B4E001900D928A95D1
:10334000E1F70E9474069091C103891709F435CF03
:103350008093C1030E94AE0630CF0E94AC0710924A
:103360007A011092DD031092DE03109201010BCE60
:103370008DEB91E0D7CE80917A01843031F10E94BB
:10338000850A1092780148E150E080E40FB6F89485
:10339000A895409360000FBE8093600083B7817F43
:1033A000846083BF83B7816083BF7894889583B737
:1033B0008E7F83BF0FB6F894A895809160008861D6
:1033C00080936000109260000FBE80917901882385
:1033D00009F4F7CE0E94EF15EBE7F1E0819181113E
:1033E00006C0A5E8B1E0AE17BF07C1F7EACE80E19D
:1033F00089BD82E189BD09B400FEFDCF8091D8006E
:103400008F7D8093D8008091E00082608093E000FF
:103410008091E00081FDFCCF0E94530CD2CE981326
:10342000EBCE0E94CC158091BC03882309F423CFF6
:10343000D12C8091BA039091BB030E94390FC2979F
:1034400030F00E94EB0A9093BB038093BA03809103
:10345000B3039091B403892B81F08091B203811161
:103460000CC00E94970A2091B3033091B40380E00E
:1034700061E070E02115310539F58091B9038823A9
:10348000F9F00E94AE066D877E878F87988B8091BA
:10349000B5039091B603A091B703B091B8032D8501
:1034A0003E854F855889281B390B4A0B5B0BDA0187
:1034B000C9018F3F9F4FAF4FBF4710F40E94850A4D
:1034C000D110D7CED8CE8F5F082F10E07B01082E09
:1034D00002C0EE0CFF1C0A94E2F7A701422353231B
:1034E000452B89F39091B10390FD43C09801369527
:1034F000279536952795922F8295880F80763FE104
:10350000380F80930E012093110130930F01909397
:10351000120124E630E047E050E06CE071E088E71B
:103520000E946A1D892B09F0A8CFA80135E0440F3D
:10353000551F3A95E1F78091B10380FD22C04F54A9
:103540005E4F04E610E020E230E060E488E70E948D
:10355000021E892B09F091CFE094F0948091B3037F
:103560009091B403E822F922F092B403E092B303FD
:1035700084CF880F880F880F37E0380F20E093E062
:10358000C0CFE1E9F1E080E2DF011D928A95E9F721
:103590000AE311E096E3A92E91E0B92E2EE3422E24
:1035A00021E0522ED801ED918D01D5016D915D0183
:1035B000640F752F711D6F547E4FF0E0EF56FE4F74
:1035C00020E030E087E0682E621ACC24C394022EFB
:1035D00001C0CC0C0A94EAF74B0190E0D4018D9124
:1035E0004D018C21A62DA91BA770AD87B0E0782EC8
:1035F0000D8401C0770C0A94EAF7B195A195B10941
:10360000A770BB2701C08695AA95EAF78729A081F4
:103610008A2B80839F5F983009F72F5F3F4F319649
:103620002830310579F64016510609F0BBCF04E683
:1036300010E020E230E041E951E087CF253131054B
:1036400008F447CE8F3F19F08F5F8093100400235A
:1036500059F00E942F069FEF10160CF491E0899FFD
:10366000802D112480931404112359F00E942F06F9
:1036700091E011160CF09FEF899F802D112480930B
:10368000150480911404882309F423CEC0901504F6
:10369000CC2009F41ECE0E942106811101C081E0D8
:1036A000809314048C2D0E942106882319F08093A6
:1036B00015040FCE81E0FBCF2135310508F41CCE77
:1036C0008F3F19F08F5F80930F04DD2059F00E9427
:1036D0004F069FEF1D140CF491E0899F802D11245B
:1036E00080931604EE2059F00E944F0691E01E14BC
:1036F0000CF09FEF899F802D1124809317048091F7
:103700001604882309F4F8CDE0901704EE2009F49C
:10371000F3CD0E942106811101C081E0809316043F
:103720008E2D0E942106882319F080931704E4CD82
:1037300081E0FBCF78941F921FB61F9211248F93C4
:103740009F93AF93BF938091C6039091C703A091BD
:10375000C803B091C9030196A11DB11D8093C60392
:103760009093C703A093C803B093C903BF91AF91CF
:103770009F918F911F901FBE1F9018951F920F92BF
:103780000FB60F9211242F933F934F935F936F9334
:103790007F938F939F93AF93BF93EF93FF9380910A
:1037A000E10082FF09C08091E20082FF05C08091A4
:1037B000E1008B7F8093E1008091DA0080FF24C0DC
:1037C0008091D80080FF20C08091DA008E7F8093A6
:1037D000DA008091D90080FF9BC080E189BD82E141
:1037E00089BD09B400FEFDCF81E080937A0180910C
:1037F0005A01811109C00E94AC070E941B088091E8
:10380000E20084608093E2008091E10080FF17C0B5
:103810008091E20080FF13C08091E2008E7F809350
:10382000E2008091E20080618093E2008091D80004
:1038300080628093D80019BC85E080937A018091E2
:10384000E10084FF29C08091E20084FF25C080E16F
:1038500089BD82E189BD09B400FEFDCF8091D80009
:103860008F7D8093D8008091E1008F7E8093E1006E
:103870008091E2008F7E8093E2008091E20081607F
:103880008093E20080915901882309F447C084E0C5
:1038900080937A0180917A018091E10083FF27C0B3
:1038A0008091E20083FF23C08091E100877F8093B5
:1038B000E10082E080937A01109259018091E10049
:1038C0008E7F8093E1008091E2008E7F8093E20002
:1038D0008091E20080618093E20042E060E080E05D
:1038E0000E94E4078091F00088608093F000FF91CF
:1038F000EF91BF91AF919F918F917F916F915F9168
:103900004F913F912F910F900FBE0F901F901895E0
:1039100019BC10927A0110925A0176CF8091E3007F
:1039200087FF02C083E0B4CF81E0B2CF1F920F9235
:103930000FB60F921124FF920F931F932F933F9373
:103940004F935F936F937F938F939F93AF93BF93A7
:10395000CF93DF93EF93FF9309EE10E0F80180819E
:10396000C091EC00C795CC27C7958F70FC2EF82A24
:103970001082C0EFD0E08881877F888378940E948E
:10398000880CF8011082888188608883CF2DCF70E1
:10399000C083FF91EF91DF91CF91BF91AF919F9144
:1039A0008F917F916F915F914F913F912F911F91D7
:1039B0000F91FF900F900FBE0F901F901895FF92E0
:1039C0000F931F93CF93DF93182FEB011092BC003E
:1039D00084EA8093BC000E94EB0A082FF92E8091A4
:1039E000BC0087FF28C08091B900887F883029F00B
:1039F0008091B900887F8031A1F51093BB0084E8E5
:103A00008093BC000E94EB0A182F092F8091BC0004
:103A100087FF1FC02091B900287F80E090E0283107
:103A200099F081E090E0203411F480E090E09195ED
:103A30008195910909C0802F9F2D0E94390FC817C9
:103A4000D90768F68EEF9FEFCDB7DEB7E5E00C94AF
:103A50005020812F902F0E94390FC817D907B0F638
:103A6000F1CF8FEF9FEFF0CF1092B9008CE08093F1
:103A7000B80008950F931F93CF93DF93EB018093CA
:103A8000BB0084E88093BC000E94EB0A182F092F2A
:103A90008091BC0087FF11C02091B900287F81E090
:103AA00090E0283211F480E090E0919581959109A1
:103AB000DF91CF911F910F910895CF3FDC0741F324
:103AC000812F902F0E94390FC817D90708F78EEF62
:103AD0009FEFEECFA0E0B0E0E0E7FDE10C942C20FA
:103AE000782E5B016A0189010E94EB0A4C010431C6
:103AF000110560F10F3F100769F1C80164E170E042
:103B00000E941320F62EE72E6F2D7E2D872D0E940A
:103B1000DF1CEC0197FF09C00F3F1007A9F3C40198
:103B20000E94390F0817190778F77501CA0CDB1CBA
:103B3000EC14FD0411F0D7FF10C084E98093BC00A1
:103B4000CE01CDB7DEB7EDE00C944820FF24F3940E
:103B5000E12CDACF85E0F82EFBCFB801F701819197
:103B60007F010E943A1DEC01E3CFA0E0B0E0EBEB57
:103B7000FDE10C942C20782E5B016A0189010E94E2
:103B8000EB0A4C010431110560F10F3F100769F198
:103B9000C80164E170E00E941320F62EE72E6F2D1D
:103BA0007E2D872D0E94DF1CEC0197FF09C00F3F7F
:103BB0001007A9F3C4010E94390F0817190778F7F5
:103BC0007501CA0CDB1CEC14FD0411F0D7FF10C00A
:103BD00084E98093BC00CE01CDB7DEB7EDE00C9454
:103BE0004820FF24F394E12CDACF85E0F82EFBCFB8
:103BF000F7018491B8010E943A1DEC01FFEFEF1A22
:103C0000FF0AE1CFA0E0B0E0E8E0FEE10C942B2059
:103C1000682E962E5A01690178010E94EB0A782ECF
:103C2000892E0431110530F10F3F100731F1C80121
:103C300064E170E00E941320162F072F612F702F70
:103C4000862D0E94DF1CEC0197FF19C0FFEFEF16D5
:103C5000FF06A1F3872D982D0E94390FE816F9066B
:103C600068F784E98093BC00CE01CDB7DEB7EEE003
:103C70000C94472011E000E0E1CF15E0FCCFB70144
:103C8000892D0E943A1DEC018501CA0CDB1C0C1524
:103C90001D0539F3D7FDE5CFB701F80181918F01FB
:103CA0000E943A1DEC01F3CF8EE14A9B03C0815084
:103CB0008111FBCF4A9BFECF08955A9880E28A95E6
:103CC000F1F75A9A0895FC013BE03A95F1F798E034
:103CD00020E080E031E040E14A95F1F7880F4A9B0F
:103CE00002C08160232742E04A95F1F7000040E1DD
:103CF0004A95F1F791509111EECF90E19A95F1F735
:103D000099B132E03A95F1F7000040E14A95F1F7B8
:103D100092FB992790F992272081920F9083089522
:103D2000A1E0B0E0E6E9FEE10C94332019828C01B9
:103D30007C01E60EF11C0E151F0541F481E099810E
:103D4000911180E02196E6E00C944F200E94541ED1
:103D5000CE0101960E94631EF80181938F01EBCF83
:103D6000529A5A9A089552985A9AEA9AE9E6F0E0D5
:103D700080818F7C808308956150770B91E001C032
:103D8000990F6A95EAF7692F90E021E0611108C068
:103D9000992399F05A9A80E28A95F1F75A980895F2
:103DA000362F3823332339F05A9A922730E23A9546
:103DB000F1F76695EBCF5A98F9CF5A98ECCFFF926E
:103DC0000F931F93CF93DF93EC018C01060F111D0E
:103DD000C017D10729F4CDB7DEB7E5E00C94502029
:103DE000F9900E945D1E68E08F2D0E94BC1EF0CFEE
:103DF0001F920F920FB60F9211240F931F932F93C0
:103E00003F934F935F936F937F938F939F93AF9362
:103E1000BF93EF93FF93CF93DF930F92CDB7DEB7AE
:103E200019820E94541ECE0101960E94631E082F23
:103E3000069506950695982F92959570202F2570DA
:103E4000920F292F237096959695920F9827977029
:103E50008981892B81115CC0043008F059C080E150
:103E60008A95F1F75A9A529A82E08A95F1F700C042
:103E70005A9888E0089F80011124D801AD5EBE4F9A
:103E80001696ED91FC9117973097A9F060913E013D
:103E900070913F0114962D913C911597260F371F75
:103EA00011968D919C911297680F791F13964C91E2
:103EB00013978C910995F801ED5EFE4F638166239F
:103EC00051F020913E0130913F0184819581820F14
:103ED000931F0E94DF1E0E945D1E80E18A95F1F70C
:103EE0005A9852985A9A80E18A95F1F7F801ED5E56
:103EF000FE4F6081662351F020913E0130913F01D9
:103F000081819281820F931F0E94901E0E94541EF5
:103F10000F90DF91CF91FF91EF91BF91AF919F9162
:103F20008F917F916F915F914F913F912F911F9151
:103F30000F910F900FBE0F901F9018950F931F9326
:103F4000CF93DF938C0104970CF065C0F894529ADC
:103F50005A9885E08A95F1F70000C02FC695C57084
:103F6000802F8570C80F8C2F8370C695C69593E0FF
:103F7000000F111F9A95E1F7C80FC8018C2BEC01B7
:103F80000E945D1E00C068E08C2F0E94BC1E90E164
:103F90009A95F1F752985A9A4A9B35C087E090E07B
:103FA0004A9933C0F801ED5EFE4F6381662361F0EC
:103FB00020913E0130913F0184819581820F931FB2
:103FC0000E94901E882321F10E94541E80E28A954F
:103FD000F1F75A98529A90E19A95F1F7F801ED5E4F
:103FE000FE4F6081662351F020913E0130913F01E8
:103FF00081819281820F931F0E94DF1E0E945D1EAD
:10400000789481E009C000C0C7CF0197009749F4B8
:10401000529A5A9A789480E0DF91CF911F910F9134
:10402000089500C0BDCFAA1BBB1B51E107C0AA1F4A
:10403000BB1FA617B70710F0A61BB70B881F991F49
:104040005A95A9F780959095BC01CD0108952F92BE
:104050003F924F925F926F927F928F929F92AF9218
:10406000BF92CF92DF92EF92FF920F931F93CF9365
:10407000DF93CDB7DEB7CA1BDB0B0FB6F894DEBFFC
:104080000FBECDBF09942A88398848885F846E8422
:104090007D848C849B84AA84B984C884DF80EE806C
:1040A000FD800C811B81AA81B981CE0FD11D0FB675
:1040B000F894DEBF0FBECDBFED01089597FB072E2C
:1040C00016F4009407D077FD09D00E94132007FC56
:1040D00005D03EF4909581959F4F08957095619518
:1040E0007F4F0895EE0FFF1F0590F491E02D099486
:1040F000FB01DC0104C08D910190801921F4415035
:104100005040C8F7881B990B0895FB01DC0102C0E1
:1041100001900D9241505040D8F70895F999FECF83
:1041200092BD81BDF89A992780B50895A8E1B0E0C5
:1041300042E050E00C94D220DC01A40FB51F4150A6
:10414000504048F0CB01840F951F2E910E94AD2066
:1041500041505040D0F70895262FF999FECF92BDD7
:1041600081BDF89A019700B4021639F01FBA20BD3C
:104170000FB6F894FA9AF99A0FBE08950396272F6E
:104180000E94AD200E94AC20252F0E94AD20242F3C
:104190000C94AD200196272F0E94AD200C94AC20EA
:1041A000DC01CB01FC01F999FECF06C0F2BDE1BDF7
:1041B000F89A319600B40D9241505040B8F70895E6
:1041C000F894FFCF480B4B0B510B660B660B660B3D
:1041D000660B660B660B660B660B540B590B5D0B7F
:1041E000630B740B7A0B7E0B650D8B0D910D8B0D94
:1041F000910DE40D060E910D040F110F0210061023
:10420000F80FFE0F0A100E101210EC105711F410D8
:10421000BE10C210F810C610FC100811D2105011B8
:10422000D6100C11DA1010113811DE1014113F11D4
:10423000E4101A112211CA100011CE100411E81056
:0E4240001E112E1148114E11B810F0105E1113
:10424E000101FE06D3080107EA0802070021007FDC
:10425E002200030000000100000000000000050124
:10426E0000000004060000000000006697C634350A
:10427E00F6F7313332360008101818100800CA034A
:00000001FF
