:100000000C946A020C9487020C9487020C94B61F1D
:100010000C9487020C9487020C9487020C9487023C
:100020000C9487020C9487020C947C1C0C94541D35
:100030000C940B0B0C9487020C9487020C9487028F
:100040000C9487020C9487020C9487020C9487020C
:100050000C9487020C94581C0C9487020C94870211
:100060000C9487020C9487020C9487020C948702EC
:100070000C9487020C9487020C9487020C948702DC
:100080000C9487020C9487020C9487020C948702CC
:100090000C9487020C9487020C9487020C948702BC
:1000A0000C9487020C9487020C94870200AF00AE78
:1000B00005010902A10185020901A1000509190133
:1000C00029081500250195087501810205010930EF
:1000D00009311581257F950275088106093815813A
:1000E000257F950175088106050C0A3802158125C2
:1000F0007F950175088106C0C005010980A10185B1
:100100000319012AB700150126B700950175108162
:1001100000C0050C0901A101850419012AA00215DE
:100120000126A002950175108100C005010906A1F4
:1001300001050719E029E7150025019508750181DA
:10014000029501750881010507190029FF15002690
:10015000FF0095067508810005081901290515009D
:100160002501950575019102950175039101C0095D
:10017000023B00020100A0FA090400000103010192
:100180000009211101000122440007058103080034
:10019000010904010001030000000921110100010F
:1001A000227B0007058203200001120100020000EB
:1001B0000008D8042DEB0001010200010E034C00E1
:1001C00069006C00790035003800000010036C00F5
:1001D00069006C00690075006D0073000000040385
:1001E000090400DA0281FFD9F1DB20A4A62EAF00BA
:1001F000A0C0D30000A1C8D30000AED580A81F4086
:100200008D14200029001E001F0020002100220064
:100210002B0014001A00080015001700E10004006C
:100220001600070009000A00E0001D001B00060080
:10023000190005000000E200A04524522C00340003
:100240004600270026002500240023003402130066
:1002500012000C0018001C00300036140F000E00B5
:100260000D000B002F002D0037003600100011008C
:1002700000000718390028002A0035022900310043
:100280001E001F00200021000F002B0014001A0088
:10029000080015001000E100040016000700090026
:1002A0000D00E0001D001B000600190000000052B8
:1002B0000A00E2002C00050046002600250024006C
:1002C000230022000000130012000C0018001C0084
:1002D0003502000000000E0000000B00410040004D
:1002E0003F003E000000110000004500E70028002C
:1002F0002A001700290000000C130C01000009015E
:1003000014012B0031041A00310051041601E100E0
:1003100004001600070009001D02E0001D001B007C
:100320000600090500000052150024522C000605A5
:100330004600070A190106011B0100000000000029
:100340000000520000000000000000004F005100BB
:10035000500000000000000000000000000000004D
:1003600000000000000028002A00000029001E00F4
:100370001F002000210022002B0014001A00090099
:1003800013000500E10004001500160017000A0024
:10039000E0001D001B000600010019000000E20043
:1003A000A04524522C0034004600270026002500DA
:1003B00024002300340235021C0018000F000D0039
:1003C000300012000C000800110010002F002D005A
:1003D000370036000B000E00000007183900280017
:1003E0002A00361431021E021F02200221022202BC
:1003F0003D0451051005180517131701E10004010C
:100400001B01060119010A08E0001D011D13160158
:1004100011134C0000002C08E3000000160A350000
:1004200046022E0027022602380024022E020C016A
:100430004F01520050012B08250205014F005100C9
:100440005000090100522D023302330022143802F9
:1004500000000F081601E1012C0423026400015280
:1004600002520000000003520000D200D4001A051E
:10047000D100200D740000002B133E002B011F0D36
:100480007500AC00AE00AB0019131E0D000015087E
:10049000005200002C00AF004A00000000000000E5
:1004A000000000004D000000000000004500440076
:1004B000370243004200410040003F0036023E0048
:1004C0003D003C003B003A0000004F085008580037
:1004D0002A00A50011241FBECFEFDAE0DEBFCDBF9A
:1004E00011E0A0E0B1E0E2EEF3E402C005900D926D
:1004F000A637B107D9F724E0A6E7B1E001C01D9205
:10050000A03AB207E1F70E940F180C949E210C94B8
:1005100000009093580480935704089590935A04D0
:1005200080935904089521E030E002C0220F331F68
:100530008A95E2F78091590490915A04822B932B6B
:100540000E948E02089521E030E002C0220F331F86
:100550008A95E2F7209530958091590490915A043C
:10056000822393230E948E0208959A3098F5863054
:1005700088F5E82FF0E086E0989FE00DF11D11244A
:100580008E2F877041E001C0440F8A95EAF783E01F
:10059000F695E7958A95E1F7EE0FFF1FEE0FFF1F27
:1005A000E75DFB4F20E030E070E05191DF011197F3
:1005B000CB01022E02C0969587950A94E2F78170CE
:1005C00081958527842385278C932F5F3F4F243087
:1005D000310559F708959A3078F5863068F5E82F97
:1005E000F0E086E0989FE00DF11D11249E2F97709A
:1005F00083E0F695E7958A95E1F7EE0FFF1FEE0F82
:10060000FF1FE75DFB4F40E050E080E0219130E0CC
:10061000092E02C0369527950A94E2F721703327F8
:10062000042E01C0220F0A94EAF7822B4F5F5F4F1E
:100630004430510559F7089580E008958091600491
:1006400090915F04981301C008958F5F8770FACF6F
:1006500090915B048095892380935B04282F2770F9
:1006600021110DC0891759F090915D0492FF07C0C8
:100670008695869586950E94A30210925B04089544
:10068000982F909580915404892380935404089561
:100690007A30B8F46630A8F48630B0F4E62FF0E093
:1006A00096E0799FE00DF11D11249CE3899FE00DF8
:1006B000F11D1124EE0FFF1FEC5FFD4F859194910A
:1006C000089580E090E0089581E0FCCF803E9105A0
:1006D000D1F1C8F48133910509F47FC048F489321F
:1006E000910509F46FC08A32910509F47DC008951F
:1006F00089339105E1F082389105C9F08533910580
:1007000009F45BC00895843E9105D1F148F4823E1E
:10071000910531F1833E910541F181EE90E008951C
:10072000863E9105C1F1873E9105E1F10895209142
:100730005C042370211165C020915D0423FF14C067
:1007400089E290E0089520915C0420FD43C030913F
:100750005D0430FF09C024FF4EC080E090E00895A2
:1007600020915C0422FDF7CF089520915C0422FDC6
:1007700045C030915D0430FD44C024FFF5CFEDCF7E
:1007800020915D0421FFF0CF80915C0484FDE5CFD2
:1007900087EE90E0089520915C0423FFE5CF24FDCF
:1007A000DCCFF6CF20915C0423FD2EC030915D0498
:1007B00031FFE3CF84EE90E0089520915C0425FFA3
:1007C000D3CFBECF20915C0425FD21C020915D04D4
:1007D00023FFCACF89E390E0089520915C0426FFAF
:1007E000C3CF8AE290E0089520915C0426FFBCCF3D
:1007F00081E390E0089583EE90E0089582EE90E02A
:10080000089580EE90E0089586EE90E0089585E3E7
:1008100090E0AACF90915C0492FF10C041E0282F95
:100820002471243009F040E031E0282F287128306D
:1008300009F030E0431711F02CE0822793FF10C03D
:1008400041E0282F2471243109F040E031E0282FC5
:100850002871283109F030E0431711F02CE082278D
:1008600030915D0430FF10C051E0282F21712130FC
:1008700009F050E041E0282F2871283009F040E0CD
:10088000541711F029E0822731FF10C041E0282FD2
:100890002171213109F040E031E0282F2871283101
:1008A00009F030E0431711F029E0822794FD877E9C
:1008B00008951F93CF93DF930E946603EC01811587
:1008C00022E5920708F053C0811540E5940708F02F
:1008D000DDC0803E9105F8F48D3C910508F0AEC076
:1008E000883A910580F4853A910508F099C08130E5
:1008F000910521F00497813A910550F4CE01DF91E2
:10090000CF911F910895885A91094B9708F48BC095
:10091000C0E0D0E0F3CF811550E49507F8F4C1159D
:1009200080E2D80708F0CBC0C83ED10538F3CE012D
:100930009A9581159F4160F78D2F0E940A04182F08
:10094000CE0199270E946603212F30E0322F222703
:10095000E901CC27DF71C82BD92BD0CF99270E9472
:100960006603CC27DF70C82BD92BD06AC7CF80385D
:1009700042E59407C8F5803652E5950708F067C050
:10098000C03482E5D807B0F08C2F869586958770A5
:1009900020E2829FC0011124C37021E030E0A90150
:1009A00002C0440F551FCA95E2F7EA01C82BD92BA4
:1009B000DC68A4CFC03252E5D50708F041C08C2FC7
:1009C0008695869520E2829FC0011124C37021E0A4
:1009D00030E0A90102C0440F551FCA95E2F7EA01B1
:1009E000C82BD92BDD688ACF803C52E5950760F48F
:1009F0008F71C03AD24508F03FC090E0982F882709
:100A0000EC01C46FD06A7ACF805C9245809708F081
:100A10007FCFDC2FCC27CC27DF71C06FD06A6ECFA1
:100A2000A497D0646BCFC85AD0E0CC0FDD1FC05C58
:100A3000DE4F0990D881C02DD46460CFD0655ECFE1
:100A4000CF71D0E0DC2FCC27C16FD06A57CF86950D
:100A50008695877020E2829FC0011124C37021E037
:100A600030E0A90102C0440F551FCA95E2F7EA0120
:100A7000C82BD92BDA6842CF0E940A04C82FD0E0D5
:100A8000DC2FCC27CC27DF71D06238CF8F710E944A
:100A90000A0465E0D695C7956A95E1F7CF70D0E076
:100AA000DC2FCC27282F30E084FF05C054E0220F34
:100AB000331F5A95E1F7C22BD32BD0691FCF8D2F4F
:100AC0008F710E940A04182FCE0199270E94660395
:100AD000212F30E0322F222722273F71282B392B5C
:100AE000E901D2CFA0E0B0E0E8E7F5E00C94EE2019
:100AF0008C01E0905904F0905A0480915704909131
:100B00005804E82AF92ACFE0D0E0CC24C394D12CB1
:100B1000C6010C2E02C0880F991F0A94E2F78E219D
:100B20009F21892B49F4219798F7B12C8B2DCDB7B4
:100B3000DEB7E9E00C940A21BC2EB8018C2F0E948C
:100B400048030E945904019771F3F0CF0F931F934C
:100B5000CF93FC01858100811181882391F0662368
:100B600081F0C8010E947205C82F682FC8010E9439
:100B7000B502B8018C2F0E944803CF911F910F91AD
:100B80000895C8010E94EB02C82FF3CFCF93DF93E3
:100B9000D82FC92F0E9472056D2F7C2F0E94480309
:100BA0000E945904DF91CF910895FC01848188232C
:100BB000A1F0808191810E94C605282F92959F7097
:100BC000963091F060F4925F9F70923030F481E043
:100BD000203F79F030F4283E30F080E004C09A5F86
:100BE000F3CF243FD1F7089581E0283E18F0213F4C
:100BF000F9CF0895089580E00895F894E82FE295DC
:100C0000EF70F0E041A18F7021E030E0B90102C047
:100C1000660F771F8A95E2F7CB01962F9095942364
:100C200091A392A1892B82A378940895282F35EB64
:100C30002303C001112497FF04C080589109892F14
:100C4000089580589F4FFBCF80914B0480FD14C0C6
:100C500081FD14C082FD16C080914A04882381F072
:100C60008E3180F420E5829FC00111246EE170E096
:100C70000E941C21862F089584E1089588E208953A
:100C800088E0089580E5089580914B0480FD17C0A9
:100C900081FD17C082FD19C080914904882399F015
:100CA000883298F428E0829FC001112468E270E045
:100CB0000E941C216115710551F0862F089562E094
:100CC000FCCF64E0FACF61E0F8CF68E0F6CF81E0D6
:100CD000089580911704882359F0E0911F04F09142
:100CE0002004309729F00190F081E02D09950895B6
:100CF00080E00895A3E0B0E0E0E8F6E00C94F52091
:100D00009C018091A4019091A50182179307A1F005
:100D10003093A5012093A401E0911F04F0912004D9
:100D2000309751F083E089833B832A830084F185E7
:100D3000E02DCE01019609952396E2E00C94112155
:100D4000A3E0B0E0E6EAF6E00C94F5209C01809187
:100D5000A2019091A30182179307A1F03093A30100
:100D60002093A201E0911F04F0912004309751F0EC
:100D700084E089833B832A830084F185E02DCE01C2
:100D8000019609952396E2E00C9411219C01FC0147
:100D900032968FEF90E04191461751F08F3F19F452
:100DA000411101C0892F9F5F9630A9F78F3F09F449
:100DB0000895280F311D87FD3A95F9016283089542
:100DC0009C01FC013296285F3F4F8191861303C03E
:100DD000DF0111971C92E217F307B9F70895A4E019
:100DE000B0E0E5EFF6E00C94F5208FB7F894209191
:100DF00000043091010440910204509103042983BE
:100E00003A834B835C838FBF69817A818B819C811C
:100E10002496E2E00C941121A4E0B0E0E2E1F7E0D6
:100E20000C94F52080911704882371F00E94EF063E
:100E300069837A838B839C8369817A818B819C818E
:100E40002496E2E00C9411210E94EF0669837A83D4
:100E50008B839C838091190490911A04A0911B04A8
:100E6000B0911C0429813A814B815C81280F391F84
:100E70004A1F5B1F29833A834B835C83DDCF8091BC
:100E8000A10108950895FC019B0180919701909123
:100E900098018617970740F0672B29F48091E800A6
:100EA0008E778093E800C90140E0009741F441113A
:100EB00006C08091E80082FF2FC080E00895209155
:100EC000B4012223A9F12530A9F12091E80023FDE6
:100ED0002DC02091E80022FDECCF2091E80020FFFA
:100EE000E4CF3091F3002091F200009719F0283000
:100EF000310558F041E02830310509F040E02091FB
:100F0000E8002E772093E800D0CF41914093F10084
:100F100001972F5F3F4FE9CF8091B401882341F0C3
:100F2000853041F08091E80083FFC3CF81E00895D0
:100F300082E0089583E008958091910187FF13C0B6
:100F40008091E80082FF06C08091E8008B77809353
:100F5000E80004C08091B4018111F2CF089580911E
:100F6000B4018823D9F38091E80080FFF8CF809105
:100F7000E8008E77ECCF2091E4003091E50095E613
:100F8000A9018091EC008170882331F08091E80004
:100F900080FF06C080E008952091E80022FD1BC07C
:100FA0008091B401882391F0853091F08091EB001D
:100FB00085FD10C02091E4003091E50042175307F1
:100FC00001F391509111DCCF84E0089582E00895FF
:100FD00083E0089581E00895E8EDF0E080818E7F60
:100FE00080831092E2001092DA001092E100A0EEED
:100FF000B0E08C9181608C9380818F77808319BC65
:10100000A7EDB0E08C918E7F8C9380818F7E808362
:10101000109290010895FC01AC014B5F5F4F8FEF80
:1010200091E32191822728E030E087FF0BC0880FF1
:1010300089272150310921153105B9F7E417F50742
:1010400081F70895880FF5CF982FE42FE2709093E1
:10105000E900891308C0762F242F50E0E11111C058
:1010600091E0980FF4CF7091EC002091ED00509139
:10107000F00021FD06C09F5F973049F78093E9009B
:1010800008953091EB003E7F3093EB003091ED00FE
:101090003D7F3093ED003091EB0031603093EB00F9
:1010A0007093EC002093ED005093F0002091EE003F
:1010B00027FDE1CF0895A0E0B0E0E1E6F8E00C9470
:1010C000EF20C8EDD0E088818F7E8883E7EDF0E0E7
:1010D00080818160808384E082BF81E08093900181
:1010E00088818E7F888302EE10E0F80110821092D2
:1010F000DA0081EEC82ED12CF601108288818F771C
:10110000888388818068888388818F7D888319BCE3
:101110001092B40110928F011092B30110928E01BF
:1011200090EEE92EF12CF70180818B7F80838881FE
:101130008160888342E060E080E00E942408F6013C
:1011400080818E7F8083F8018081816080838081AF
:1011500088608083F70180818E7F808388818061B1
:101160008883CDB7DEB7E8E00C940B21E0916004F2
:1011700090915F0427E0E91302C080E00895AE2F4C
:10118000B0E02E9FF0011124EF59FB4F318136134F
:1011900006C03081381303C03581341304C0FD010B
:1011A0003196E770E8CF81E008950F931F93CF93B6
:1011B000DF93EB018A019091B401943079F580932B
:1011C000E9008FEF9091E80095FD07C095ED9A95A5
:1011D000F1F7000081508111F5CF8091E80085FF83
:1011E0001DC00E94BB07811114C08091E80085FDDD
:1011F00006C08091E8008E778093E800F2CF888166
:101200008093F100015011090115110511F021968B
:10121000ECCF8091E8008E778093E800DF91CF914A
:101220001F910F910895CF93DF93D82FC92F48E0D6
:1012300050E0682F792F81E00E94D50888E0ED2FDB
:10124000FC2FA9E9B1E001900D928A95E1F7DF91B9
:10125000CF910895BC0146E050E082E00E94D5089D
:101260000895BC0143E050E082E00E94D508089553
:10127000A0E0B0E0EEE3F9E00C94ED20F82EE92ECA
:10128000B62EA72E8A0180918C01CC24C394D12C38
:101290008A3018F48AE0C82ED12CC1E0D0E06B2D42
:1012A0007A2D8F2D9E2DF8010995811116C021965A
:1012B000CC16DD0694F0CC9FC001CD9F900D900D13
:1012C000112420E030E045E34A95F1F700002F5F5C
:1012D0003F4F28173907B9F7E2CFCDB7DEB7EAE0BD
:1012E0000C94092190915D0492FB222720F9281784
:1012F00079F080FB92F990935D0460915C047091A9
:101300005D0484E090E00E94882182E00E9428032E
:1013100008958091540490915E04892B4091550466
:10132000442389F090E02AE731E0F90150812F5FF2
:101330003F4F51119F5F51E020383507B1F79111B0
:1013400010925504842B8093780148E050E061E2CC
:1013500074E088E791E00E943621892BA9F088E0AB
:10136000E8E7F1E0A1E2B4E001900D928A95E1F79F
:10137000E0911F04F0912004309731F00280F38156
:10138000E02D88E791E009950895882339F0909140
:101390005404892B809354040E948909089588235A
:1013A00021F00E9440030E9489090895A8E0B0E05E
:1013B000ECEDF9E00C94F4204091FC035091FD0316
:1013C0006091FE037091FF032FB7F89480910004A1
:1013D00090910104A0910204B09103042FBF841BDB
:1013E000950BA60BB70B11E084369105A105B1054D
:1013F00078F10E940C07DC01CB010296A11DB11D02
:1014000089839A83AB83BC838091240190912501C9
:101410008C5F9B4F20912301422F50E0253010F02C
:1014200044E050E0BE016F5F7F4F0E94432182E0A5
:1014300090E00E945C20182F882351F00E94EF0654
:101440006093FC037093FD038093FE039093FF036E
:10145000812F2896E3E00C941021A6E0B0E0E3E3AE
:10146000FAE00C94F220F62E072F80E090E00E9424
:101470005C20182F882309F469C080911601482F39
:1014800050E0882311F041E050E060911701709125
:1014900018016C5F7B4FCE0106960E94432140915C
:1014A00013045091140460911504709116042FB721
:1014B000F8948091000490910104A0910204B091ED
:1014C00003042FBF841B950BA60BB70B8436910525
:1014D000A105B10538F485E094E00E940B089E81D7
:1014E0008917A1F181E090E00E945C208823C9F176
:1014F00080911E01482F50E0863010F045E050E00A
:1015000060911F01709120016C5F7B4FCE010196AD
:101510000E94432185E094E00E940B089E8189137C
:1015200020C00E94EF06609313047093140480930C
:1015300015049093160485E0FE013196AEE0B4E008
:1015400001900D928A95E1F781E00CC085E0E5E01D
:10155000F4E0DE01119601900D928A95E1F71111E8
:10156000EACF80E095E0EEE0F4E0AF2DB02F0190FF
:101570000D929A95E1F72696E5E00C940E21AB01C9
:1015800024E630E0BC0188E70E94731E9C0181E0E4
:10159000232B09F080E008958091F603882369F0F9
:1015A0008091F303882349F062E070E08EEA90E0D6
:1015B0000E94BF0A81111092F3030895A4E0B0E0E5
:1015C000E4EEFAE00C94F5208091F6038823F9F01C
:1015D0000E94EF06DC01CB01805A9541AF4FBF4F0F
:1015E0008093EF039093F003A093F103B093F20381
:1015F0008091F30381110BC062E070E08CEA90E00F
:101600000E94BF0A882319F081E08093F303249697
:10161000E2E00C9411211F921FB61F9211248F93A8
:101620009F93AF93BF938091B201811113C08091BA
:10163000000490910104A0910204B091030441962A
:10164000A11DB11D8093000490930104A093020496
:10165000B0930304BF91AF919F918F911F901FBED4
:101660001F9018952FB7F894809100049091010471
:10167000A0910204B09103042FBF08950E94320B81
:1016800020914E0430914F04232B222321F080938C
:10169000F9039093FA032091500430915104232BC5
:1016A000222321F08093F7039093F803E0911F0425
:1016B000F0912004309749F082E080934C0406803A
:1016C000F781E02D8CE494E00995089520914E0473
:1016D0009091510430915004662309F45AC040910E
:1016E0004F04242B292B232B222331F098E09093B5
:1016F0004A0491E0909349048D3C41F40E942406F1
:10170000819580934F040E943E0B0895E2E3E80F19
:10171000E231C8F7F0E0E056FE4D0C9430210E9413
:101720002406EFCF0E942406819580934E04EBCFD0
:101730000E942406FACF0E94440680935004E3CF0F
:101740000E9444068195F9CF0E94440681958093BA
:101750005104D9CF0E944406FACF815D990B21E054
:1017600030E001C0220F8A95EAF780914D04822B68
:1017700080934D04C8CF80914B04816080934B04CB
:10178000C2CF80914B048260F9CF80914B0484607A
:10179000F5CF8D3C59F480914F0487FF0DC0109216
:1017A0004F04222359F410924A0408C08E3C81F45D
:1017B00080914F0418169CF3222381F080915004ED
:1017C00090915104892B81119ECF109249049BCF97
:1017D0008F3C41F427FFF0CF10924E0480914F04CC
:1017E0008823E0CF803D19F41216B4F3E5CF893D8C
:1017F00029F413160CF710925004DECF8A3D19F429
:1018000037FFDACFF8CF8B3D29F497FFD5CF109271
:101810005104D2CF8C3D19F41916CCF3CDCF9FE2F1
:10182000980F983090F4815D990B41E050E0BA0137
:1018300002C0660F771F8A95E2F7CB0180959091E1
:101840004D04892380934D04B7CF8D3D31F48091B1
:101850004B048E7F80934B04AFCF8E3D21F480915B
:101860004B048D7FF7CF8F3D09F0A6CF80914B04BD
:101870008B7FF0CFCF93C82F8823A9F08CEF8C0FEC
:10188000813A98F4EAE7F1E08191C81709F440C081
:1018900021E0E038F207C1F76C2F88E791E00E9461
:1018A000C6060E948909CF91089580E28C0F883086
:1018B00068F4C77021E030E001C0220FCA95EAF752
:1018C00080915404822B80935404EBCF8BE58C0FD2
:1018D000833038F42C2F2452330BC9010E947A062E
:1018E000E2CFE8E5EC0FEB3150F4F0E0EE0FFF1F34
:1018F000E05CFE4F808191810E94A006D4CF83E3FB
:101900008C0F833180F661E08C2F0E94660BCBCF69
:101910006C2F88E791E00E94E0060E948909BCCF05
:10192000882399F19CEF980F913A40F4682F88E74B
:1019300091E00E94E0060E948909089590E2980FC4
:10194000983050F4877091E001C0990F8A95EAF7BA
:10195000892F0E944003EFCF9BE5980F933028F426
:1019600080E090E00E947A06089598E5980F9B31F8
:1019700028F480E090E00E94A006089593E3980F79
:10198000933118F460E00E94660B0895CF93109293
:101990005404C6E0EAE7F1E0DF018C2F1D928A953E
:1019A000E9F780E090E00E947A0680E090E00E94F3
:1019B000A00610925E040E948909ECE4F4E0DF01C5
:1019C0001D92CA95E9F710924A04109249041092A8
:1019D0004B040E943E0BCF9108950E94C60C2FEF3E
:1019E00084E39CE0215080409040E1F700C000007B
:1019F00088E19AE00FB6F894A895809360000FBE36
:101A000090936000FFCFAAE2B0E0E9E0FDE00C9423
:101A1000F42081E991E0FC0101962091F1002083FE
:101A200021E089399207B9F780919201893009F450
:101A300056C0C8F4823009F4B2C0833009F481C0C2
:101A4000813071F18091E80083FFE6C080919101BF
:101A5000909192019A3008F0DFC0E92FF0E0EE5447
:101A6000FE4D0C9430218A3009F488C08B3051F738
:101A700080919101813231F7809195019091960189
:101A8000892B01F78091E800877F8093E8000E940E
:101A90009C0780919301809300010E94C60CD2CFD5
:101AA00080919101813A71F68091E800877F80935F
:101AB000E8008091950190919601892B61F060E09A
:101AC00080E090E070E00E9443078091E8008B770F
:101AD0008093E800B7CF68E089E991E0F3CF809187
:101AE0009101813209F0AECF8091950190919601DC
:101AF000029708F0A7CF8091E800877F8093E800E5
:101B00008091E80082FF18C09091F3008091F2006C
:101B1000029731F48091F100813011F0863021F488
:101B20008091F1008093A1018091E8008B778093F0
:101B3000E8000E949C0786CF8091B4018111E0CF1C
:101B400081CF80919101813A09F07CCF80919501FC
:101B500090919601892B09F075CF8091E800877FDD
:101B60008093E8008091E80080FFFCCF8091000125
:101B70008093F1008091E8008E77D9CF8091910118
:101B8000813209F05FCF8091E800877F8093E80081
:101B90000E949C078091940180938D0153CF809186
:101BA0009101813A09F04ECF8091E800877F8093C0
:101BB000E8008091E80080FFFCCF80918D01D8CFB4
:101BC000803889F0823841F5809195018F70873097
:101BD00018F58093E9008091EB0085FB882780F958
:101BE0001092E90006C080918E019091B30191118D
:101BF00082609091E800977F9093E8008093F100D5
:101C00001092F1008091E8008E7723C0811116C0F8
:101C100080919301813011F18091E80083FF0AC027
:101C20008091E800877F8093E8008091EB008062DC
:101C30008093EB00AA96E3E00C941021823061F7C8
:101C400080919301882389F01092E9008091E80047
:101C5000877F8093E8000E949C07DECF81E093306D
:101C600009F080E08093B301EFCF809195018F70F0
:101C70002FEF280F263080F68093E9002091EB00AB
:101C800020FFE2CF933031F48091EB0080628093AB
:101C9000EB00DACF9091EB0090619093EB0021E0A4
:101CA00030E0A90102C0440F551F8A95E2F7409326
:101CB000EA001092EA008091EB008860E8CF811181
:101CC000ABCF109193011F778091E3008078812B37
:101CD0008093E3008091E800877F8093E8000E9472
:101CE0009C078091E80080FFFCCF8091E300806832
:101CF0008093E30083E0111101C082E08093B4017E
:101D00008BCF8058823008F087CF4091930150915B
:101D100094014C3D83E0580799F583E08A838AE279
:101D200089834FB7F894DE01139620E03EE051E23C
:101D3000E32FF0E050935700849120FF03C0829579
:101D40008F703F5F8F708A30C8F0895C90E08D9310
:101D50009D932F5F243161F74FBF8091E800877F0B
:101D60008093E8006AE270E0CE0101960E9443078A
:101D70008091E8008B778093E8004ECF805DE6CFBE
:101D80002091950130919601852F992783309105F7
:101D900009F160F48130910509F472C0029709F0ED
:101DA0003BCF8BE390E0EFE6F1E029C08132910573
:101DB00009F45AC0829709F02FCF2115310509F493
:101DC00069C02130310509F027CF8BE790E0E0EBC7
:101DD000F0E015C0CA0199274130B1F18230910578
:101DE00009F43AC0892B09F017CFEEEDF1E0E49148
:101DF0008E2F90E0EEEDF1E0009709F40DCF2091E9
:101E0000E800277F2093E800209197013091980106
:101E10008217930708F49C0140E02115310509F071
:101E20003EC041113CC08091E80082FDA1CF80916D
:101E3000B401882309F49CCF853009F499CF8091AF
:101E4000E80083FFF0CF94CFECECF1E0E4918E2F2B
:101E500090E0ECECF1E0D0CFECEBF1E0E4918E2FF0
:101E600090E0ECEBF1E0C8CF2115310571F02130A5
:101E7000310509F0D1CE89E090E0EAE9F1E0BFCF89
:101E800082E190E0EAEAF1E0BACF89E090E0E1E8AF
:101E9000F1E0B5CF84E490E0EBE2F1E0B0CF8091E7
:101EA000B401882309F464CF853009F461CF8091AF
:101EB000E80083FD5DCF8091E80082FDB4CF809182
:101EC000E80080FFAACF9091F3008091F2002115E5
:101ED000310519F08830910550F041E0089709F07C
:101EE00040E08091E8008E778093E80096CF44919F
:101EF0004093F1003196215031090196E8CF8038A6
:101F000009F08ACE8091E800877F8093E800809175
:101F10008F018093F10076CE81117ECE10919301D6
:101F2000123008F079CE8091E800877F8093E80036
:101F300010938F010E949C07112381F084E080930D
:101F4000B40142E061EC81E00E94240842E261ECCD
:101F500082E00E9424088091B4015ECE8091E3006B
:101F600087FDECCF81E0EBCF9C014FB7F8948091D7
:101F7000000490910104A0910204B09103044FBFAA
:101F8000821B930B08950F931F93CF93DF93C62F5C
:101F9000D42F122F8823A9F0609352040E94320B91
:101FA00090938B0180938A01C77081E001C0880FF4
:101FB000CA95EAF70E94C509DF91CF911F910F9151
:101FC000089580915204681338C080918A019091DD
:101FD0008B010E94B40F8639910578F5CD130FC09F
:101FE000812F0E943A0C812F0E94900CD77081E0C3
:101FF00001C0880FDA95EAF70E94CF09DDCFC770DC
:1020000001E0802F01C0880FCA95EAF70E94CF092E
:1020100080E28D0F883050F48D2F877001C0000F43
:102020008A95EAF7802F0E94C509DACF812F0E9496
:102030003A0C812F0E94900CBFCFC77081E001C085
:10204000880FCA95EAF7D8CFA0E0B0E0EAE2F0E165
:102050000C94EF208C01FC018481882309F477C063
:1020600061E0C8010E94A605EC01F8018581C13A32
:10207000F4E4DF0709F44FC008F03EC0C437D105CF
:1020800009F475C0C537D10509F487C0882309F460
:10209000B7C010925204CA353CE7D30709F415C201
:1020A00008F0F9C1C1309CE7D90709F40CC2C3306C
:1020B000ECE7DE0709F401C2C115DC4709F0A0C056
:1020C0000E94C60C8FEF94E3ECE081509040E0401A
:1020D000E1F700C0000087E797E79093010880933D
:1020E000000888E19AE00FB6F894A8958093600004
:1020F0000FBE90936000FFCFC03A35E4D30761F183
:10210000FE01E851FC47E730F10508F0C7C0E45490
:10211000FE4D0C943021F8019681903108F46DC089
:10212000882309F46DC080E490E00E948E028091C3
:102130005B048770882359F0F8018581882339F082
:1021400080915D0482FF03C082E00E942803CDB726
:10215000DEB7E8E00C940B21F8019681903108F489
:102160004CC0882309F44CC080E290E0DECF882385
:1021700009F446C080EE0E943A0C83EE0E943A0CAD
:1021800080E50E943A0C80EE0E94900C83EE0E9443
:10219000900C80E50E94900CCACF882389F180EED4
:1021A0000E943A0C83EE0E943A0C8FE40E943A0C93
:1021B00080EE0E94900C83EE0E94900C8FE4EACF98
:1021C00026E241EE61EE0E94C30FB1CF27E245EE59
:1021D00065EEF9CF26E241EE60EEF5CF27E245EE5F
:1021E00064EEF1CF26E241EE62EEEDCF27E245EE5E
:1021F00066EEE9CF28E241E0EBCF81111092520464
:10220000F8018581E080F180882309F462C1C7016B
:102210000E947205C82F682FC7010E94B502B7013E
:102220008C2F0E9448030E945904D82FC92FF8010F
:10223000D580C680C2942FE0C22280915B04877053
:10224000882301F1FD2CDD20F1F0892F807F80347F
:1022500061F080E28D0F8830A8F0892F807E803277
:1022600021F4D23078F0CC2069F080915D0482FFB7
:1022700009C082E00E94280380915B048770FF24DC
:10228000F3948111F12CEC2FE295EF70C03C08F033
:102290008BC1F0E0ED53FE4D0C94302181110EC046
:1022A000C631DC4709F0ACCF8091530469E281115B
:1022B00065E388E791E00E94E0061BC0109252049B
:1022C000CE0190578397C0F0C6312CE7D20709F0B2
:1022D000E2CE809154048A7A91E0811101C090E0AD
:1022E0009093530469E2811165E388E791E00E94CD
:1022F000C6060E9489091BCF84E090E00E94542109
:1023000090935D0480935C04FE01E150F047E2325B
:10231000F10520F4E153FE4D0C94302180915C04D2
:10232000816080935C0460915C0470915D0484E042
:1023300090E00E9488210E94C60CF9CE80915D0435
:10234000886080935D04EFCF80915C048260E9CF68
:1023500080915C048460E5CF80915C048860E1CF6B
:1023600080915D048160EDCF80915D048260E9CF52
:1023700080915C048061D5CF80915C048062D1CF74
:1023800080915C048064CDCF0E94C60C80915C0477
:102390008068C7CF80915C048C60C3CF80915D045E
:1023A0008360CFCF80915C048E7FBBCF80915D0432
:1023B000877FC7CF80915C048D7FB3CF80915C0411
:1023C0008B7FAFCF80915C04877FABCF80915D0422
:1023D0008E7FB7CF80915D048D7FB3CF80915C04F9
:1023E0008F7E9FCF80915C048F7D9BCF80915C041A
:1023F0008F7B97CF0E94C60C80915C048F7791CF22
:1024000080915C04837F8DCF80915D048C7F99CF18
:1024100080915C0482FB992790F921E0922790FB40
:1024200082F990FB83F97DCF80915D04982F909580
:1024300091708E7F892B90FB81F983CF90915C0402
:10244000892F8F7B96FF80646CCF0E94C60C909181
:102450005C04892F97FB87F9805863CF61E08EE099
:1024600090E00E946A215FCF60E0F9CF90915C0418
:10247000892F8F7E94FF806154CF90915C04892FC7
:102480008E7F90FF81604DCF90915D04892F877F73
:1024900093FF886056CFCB352CE7D207C1F0CC35FF
:1024A000DC4709F0ADCE80915D0482FB882780F97E
:1024B00091E089270E947209A3CE6FEF7FEF80E041
:1024C00090E00E9488210E94ED0C81E0F3CF80E033
:1024D000F1CFC7010E94EB02C82FA1CEFC2FFF70E5
:1024E000EF2EC03118F0E29490EFE922DD20B9F030
:1024F000EE2069F080E28D0F883010F0D11109C014
:10250000809154048E29809354040E9489098D2F50
:1025100043C080915E048E2980935E04F6CF8D2F98
:102520000E94900CEE2009F43FC080E28D0F8830AD
:1025300010F0D11104C08E2D0E94400306C0E0941B
:1025400080915E048E2180935E040E9489092CC0D4
:102550002C2F2F70E22EC07FC03219F0E29480EF52
:10256000E822DD2349F0D13009F46BC0DD2009F405
:1025700077C0CC20C9F1CBCF80915D0482FD30C003
:10258000DD2069F0EE2039F0809154048E2980938B
:1025900054040E94890980E00E943A0C05C080E042
:1025A0000E94900CE110C7CFFF20A9F080915B043E
:1025B00080FD11C0F80115828695869586950E944A
:1025C0009302C8010E94241080915B048695869531
:1025D00086950E94A30260E0C8010E94A605B7CDBF
:1025E000DD2099F0C11004C08E2D0E94C509DCCFFA
:1025F00031E0C312D9CF809155049E2D9823E9165E
:1026000099F28E2980935504CFCFC110CDCF8E2D56
:102610000E94CF09909155048E2D8923882329F09B
:102620008E2D8095892380935504809156049E2D8C
:102630009823992309F4B8CFE094E822E092560455
:10264000B3CFDD2029F085E08C1508F4ADCFCCCFD9
:1026500094E09C1508F4A8CF8E2D0E94CF09A4CF3A
:10266000CC20D1F3D93349F4EFEFF7EE23E0E1507A
:10267000F0402040E1F700C000008D2F0E94900C38
:1026800093CF8C2F869586958370882369F081304F
:1026900009F08ACF8D2F9C2F9370D11002C080E05B
:1026A00090E00E94A00680CF8D2F9C2F9370D110B8
:1026B00002C080E090E00E947A0676CF6D2D8D2FCB
:1026C0000E94660B71CF8C2F8370811142C0D11094
:1026D0002FC04D2F429546954770440F440F2D2F24
:1026E0002F7030E0042E02C0220F331F0A94E2F74D
:1026F00080E090E0D4FF09C08FE090E002C0880F36
:10270000991F4A95E2F780959095C695C695C37036
:10271000C230B1F0C33089F0409157045091580451
:10272000C13049F0822B932B842395230E94890288
:102730000E94690639CF242B352B822B932BF6CFA1
:10274000822B932B20915704309158048227932792
:10275000EDCFDD2091F1C0FFEBCF4D2F4295469597
:102760004770440F440F2D2F2F7030E0042E02C00D
:10277000220F331F0A94E2F780E090E0D4FF09C0F3
:102780008FE090E002C0880F991F4A95E2F780958C
:102790009095C695C695C370C230C1F0C33099F00C
:1027A0004091590450915A04C13059F0822B932B17
:1027B000842395230E948E02BBCF823008F4B8CFC9
:1027C000CCCF242B352B822B932BF4CF822B932B26
:1027D0002091590430915A0482279327EBCFCF7070
:1027E000DD2039F08C2F0E9493028D2F0E94C509A5
:1027F0009FCF8D2F0E94CF098C2F0E94A30298CFCC
:10280000D23FA1F178F4D03FC1F0D13F09F447C0E5
:10281000DD2009F466C0CC2009F460C08D2F0E9431
:102820003A0C86CFD33F49F1D43FA9F1D110F3CF71
:10283000C11065C08C2F8F71E0CFDD20A1F034E096
:102840003C1508F475CFCF7181E090E0FC0102C027
:10285000EE0FFF1FCA95E2F78091590490915A0438
:102860008E279F27A7CFF5E0CF16EBCF8C2F8F7148
:10287000D110C3CF0E9493025BCF80E090E0DD20B7
:1028800009F498CFCF7181E090E002C0880F991FC2
:10289000CA95E2F78FCF90915D0492FD06C08C2F10
:1028A0008F71DD2009F4A9CFE5CFDD2061F08C2FF9
:1028B0008F7192FFDFCF98E0899F900111242360F0
:1028C00020935B04D7CF81E00E942803E1E0EC1560
:1028D00008F02ECF82E00E9428032ACF8C2F8F7120
:1028E000C9CFCC2009F4A6CFD93349F4FFEF27EEA6
:1028F00033E0F15020403040E1F700C000008D2F60
:102900000E94900C15CF80919F04803178F48091C3
:102910009E04882359F0E091600420915F04309177
:102920009A044091990457E02E1301C008956E2F28
:1029300070E05E9FF0011124DF01AF59BB4F149688
:102940008C911497882361F111968C9111978313C0
:1029500027C08C91841324C015968C9115978111F2
:102960001FC012968D919C91A0919B04B0919C04E4
:102970008A1B9B0B8639910598F480919F048F7078
:10298000806180939F04E959FB4F80818F70806143
:10299000808389E994E00E9424100E941E03089518
:1029A000FB013196E770C0CFADE0B0E0EAEDF4E1B5
:1029B0000C94EA208C0186E0F801DE011896019063
:1029C0000D928A95E1F7F801E080F580A280B3804E
:1029D000C48089E9882E84E0982E70909D0471103F
:1029E00020C0CC20D9F0FF2009F40AC1C8010E9400
:1029F000D505882309F404C187E0F801D4010190CA
:102A00000D928A95E1F7F1E0CF1206C0809199040A
:102A100090919A040E94C6050E948314FF24F394A7
:102A200051C0D0909E0480919B0490919C0495018C
:102A3000281B390BDD2009F4C6C02639310508F002
:102A40009CC0CC2059F390919A04C18080919F043E
:102A5000803108F058C0C91214C0909199049E1199
:102A600010C0F1104AC08F70806180939F0489E983
:102A700094E00E94241080919F04F8018683F12C39
:102A800021C0F1103AC040E06C2D8E2D0E94B60896
:102A900040E06C2D8E2D0E94B608F82E8111EFCFEC
:102AA000888599850E94C605292F22952F7090341C
:102AB00070F49F702230A0F09923B1F0F801968154
:102AC000903190F48F2D2D96EDE00C9406212A5F25
:102AD0002F70223068F0C8010E942410FD2CF2CF24
:102AE000992311F0882371F3805E883058F3F3CF77
:102AF000803F40F3815F8230F9CF80919F048160F5
:102B000080939F04BCCFC91213C0909199049E1169
:102B10000FC0F1100DC08683C8010E94241087E009
:102B2000F801A9E9B4E001900D928A95E1F776CF1A
:102B3000C8010E94D505882309F462C0FF2009F46A
:102B40005FC080919F04803278F020919904309189
:102B50009A043A832983BC82AB827D821E828F8352
:102B6000CE0101960E94241087E0F801A9E9B4E0A3
:102B700001900D928A95E1F74FCF80919F048031AB
:102B800050F489E994E00E94241087E0F401119246
:102B90008A95E9F774CFCC2009F440CF20919A04AC
:102BA00091812913C5CF909199049E11C1CFF11045
:102BB000BFCF8683C8010E94241087E0F4011192E0
:102BC0008A95E9F72BCF26393105F8F6CC2009F4A0
:102BD00025CFFF20A9F090919A048181981306C017
:102BE000809199048E1102C087E09BCFC8010E949A
:102BF000D5058111B9CF80919F04816080939F0496
:102C0000C8010E9424100ACFABE1B0E0EAE0F6E18F
:102C10000C94F4204E8B5F8B688F798F8A8F9B8FFB
:102C2000911110925E041D8A86E0FE017696DE0107
:102C30001F9601900D928A95E1F78B89882329F0E0
:102C400061E0CE010F960E94A60587E0FE013F9647
:102C5000DE01189601900D928A95E1F7CE01089653
:102C60000E94D41481112BC087E0FE013896DE014A
:102C7000119601900D928A95E1F720915F044091A1
:102C800060048C858823D9F030E0C90101968770F3
:102C9000992750E084179507E9F097E0929FD001BB
:102CA000939FB00D1124AF59BB4FFE013196019097
:102CB0000D929A95E1F780935F040E941E0317E03E
:102CC0008091600490915F04891312C06B96E3E0D9
:102CD0000C9410210E94C60C10925F0410926004A4
:102CE00087E0E9E9F4E0DF011D928A95E9F7E7CF93
:102CF000189FC00111248F599B4F0E94D414882320
:102D000029F38091600490E0019687709927809361
:102D10006004D6CFA6E0B0E0E0E9F6E10C94F32041
:102D20000E94320B8C0180911D0490911E0480172B
:102D3000910779F019821A820E94320BBC014981F5
:102D40005A8180E090E00E94041610931E040093C4
:102D50001D042696E4E00C940F21A3E1B0E0E3EB20
:102D6000F6E10C94EA201A821982FE01339688E07B
:102D7000DF011D928A95E9F78BE2A82E81E0B82E3B
:102D80008E010F5F1F4F4801EE24E394F12C26E3E0
:102D9000C22E21E0D22EF50181915F018F3F09F40F
:102DA00041C0F894E82FE295EF70F0E021A18F7018
:102DB000A70102C0440F551F8A95E2F7CA01922F5E
:102DC000982B91A392A18095892382A3789400C027
:102DD000E0E3F1E031E0712C21912F3F09F48AC04A
:102DE000A22FA295AF70A05EB0E08C9190E02F7002
:102DF00002C0959587952A95E2F7817081117AC076
:102E0000832F782A330FCE16DF0631F7F50131977D
:102E100080818F3F11F00E94FD0550EA5A95F1F72D
:102E2000D8017C920F5F1F4FB0E3AB16B1E0BB0639
:102E300009F0B1CF4AE050E0B40186EA91E00E9487
:102E400036210091B10110E00B541E4F892B09F47B
:102E500053C08AE0F401A6EAB1E001900D928A9590
:102E6000E1F781E0809389010E94320B9093880101
:102E70008093870180911704882309F495C01C86EC
:102E80001B86FE013D9683E0DF011D928A95E9F7DE
:102E900080918C018A3008F051C07E01BBE0EB0EBE
:102EA000F11C4DE25AE0B701C8010E9438096701E0
:102EB000882309F467C046ED59E0B701C8010E94B4
:102EC0003809882309F45EC010928C018091B0010A
:102ED00090E045E050E0B6018B549E4F0E943621B1
:102EE00021E020938601892B09F03FC06396EDE035
:102EF0000C94062180E085CF80918901882309F414
:102F0000B9CF80918701909188010E94B40F0597F5
:102F100008F4B0CF45E050E066EA71E0C8010E94D5
:102F20003621892B41F085E0E6EAF1E0D8010190F5
:102F30000D928A95E1F7109289019CCF80918401CE
:102F4000909185010E94B40F843F914008F0A5CF75
:102F500080918601882351F2FE013B9685E0DF01D6
:102F60001D928A95E9F710928601A091B001B0E018
:102F7000AB54BE4F85E0FE013B9601900D928A95C1
:102F8000E1F7B4CF80918C018F3F39F40E94320B6E
:102F90009093850180938401DBCF8F5F80938C01B8
:102FA0008A3008F493CFF2CF85E0F801A5E0B4E0D1
:102FB00001900D928A95E1F785E094E00E940B085C
:102FC00080930404C0900A04D0900B04E0900C0499
:102FD000F0900D048091800190918101A091820177
:102FE000B0918301C816D906EA06FB0609F47ECF24
:102FF000C0928001D0928101E0928201F09283011F
:103000000E94EF06C61AD70AE80AF90AC092190404
:10301000D0921A04E0921B04F0921C0467CFCDB743
:10302000DEB761970FB6F894DEBF0FBECDBF85B790
:10303000806885BF85B7806885BF84B7877F84BF78
:103040000FB6F894A8958091600088618093600025
:10305000109260000FBE80E890E00FB6F894809365
:103060006100909361000FBE8BEF95E09093770124
:10307000809376010E94EC070E945B088091E20039
:1030800084608093E20078948091B401882399F061
:103090008091E9001091EC001795112717958F701A
:1030A000182B1092E9008091E80083FD0E94030D27
:1030B0001F701093E90082E084BD93E095BD9AEF04
:1030C00097BD80936E001092190410921A0410920A
:1030D0001B0410921C048091D80080618093D8005A
:1030E0002AE12A95F1F700C08091D90080FFF3C151
:1030F00081E08093170480931804809301010E945B
:103100006E1F809101018091010190E0811101C049
:1031100095E09093B10185E0891B8093B0010BE2AB
:1031200011E0D8018D918D018F3F11F00E94FD05B6
:10313000B1E000331B07A9F700E311E076E3E72EC7
:1031400071E0F72EF80181918F018F3F11F00E94FD
:10315000FD05E016F106B1F78AE0E5EBF1E0DF01ED
:10316000782E1D927A94E9F7E6EAF1E0DF011D92EC
:103170008A95E9F780E090E00E945421853E9E4FB9
:1031800009F461C065EE7EEF80E090E00E94882146
:1031900060E082E090E00E946A2181E090E09093FC
:1031A00058048093570461E083E090E00E946A2114
:1031B00060E074E184E090E00E94882160E086E0B5
:1031C00090E00E946A2160E087E090E00E946A211E
:1031D00040E050E0BA0188E090E00E947C2160E08D
:1031E00083E290E00E946A2160E08CE090E00E941F
:1031F0006A2160E08DE090E00E946A2119821A82C3
:103200001B821C821D821E821F82188648E050E0AD
:1032100067E170E0CE0101960E945A2140E050E043
:10322000BA018FE190E00E947C2140E050E0BA01B9
:103230008FE090E00E947C2140E050E0BA0183E101
:1032400090E00E947C2182E090E00E944C218093DB
:10325000BF0184E090E00E94542190935D0480932C
:103260005C0483E090E00E944C2190E00E9489027F
:103270001092EB0380E88093CA010E94F21D6BE07C
:1032800070E089EF91E00E94BF0A882309F43FC0F3
:103290008091EB0365E070E081FD28C184EF91E04F
:1032A0000E94BF0A882399F16DE070E082EE91E000
:1032B0000E94BF0A882359F10E94EF0669877A8726
:1032C0008B879C87DC01CB01805A9541AF4FBF4F64
:1032D0008093EF039093F003A093F103B093F20374
:1032E000EBEEF1E080E092E0DF019C011D922150C5
:1032F0003040E1F78FEF9FEF9093EE038093ED0363
:1033000081E08093F6038093F3031092EC038091A5
:103310001704811102C00E94711F82E091E0909316
:10332000200480931F046AEC262E61E0362ECE0125
:1033300001968987998B8091B401853049F48091F9
:10334000B401853009F4D5C00E94C60C0E946906FC
:103350000E94AD1600EC11E055EBE52E51E0F52E84
:10336000D701F80191918D912E163F0609F415C1F0
:103370009817C1F380901704D12CF701C1907F01F9
:10338000D8019D908D019C1441F19C24B12CAA245C
:10339000A394892D8A218823C1F08820B1F0B982B5
:1033A000DA820E94320B9C838B83B1E0BD8391E073
:1033B0008C2D8A21811101C090E09E8349815A8120
:1033C0006B817C818D810E940416B394AA0CE6E087
:1033D000BE12DFCFF8013197C082D394FAE0DF123A
:1033E000CCCF0E940C07D090F603D110E0C00E9411
:1033F000DE0A86E0ECE4F4E0A985B98901900D923B
:103400008A95E1F7F0904D0400914E0410914F041D
:10341000D0905004E090510410924E0410924F044A
:103420001092500410925104812F802B882379F040
:103430008091F9039091FA030E94B40F9C0180914E
:103440004A048111B9C12B30310508F0BBC18E2D62
:103450008D29882379F08091F7039091F8030E94D9
:10346000B40F9C01809149048111E4C12B303105D6
:1034700008F0E6C180914D04F81216C080914E0408
:10348000882311F0801310C090914F04992311F0FC
:1034900019130AC020915104211106C02091500433
:1034A000211102C0892B81110E943E0B86E0E98523
:1034B000F989ACE4B4E001900D928A95E1F70E949D
:1034C00069069091FB03891709F435CF8093FB03BC
:1034D0000E94EF0630CF0E94EC071092B4011092C8
:1034E000170410921804109201010BCE8FEE91E098
:1034F000D7CE8091B401843031F10E94CC0A109271
:10350000B20148E150E080E40FB6F894A8954093EA
:1035100060000FBE8093600083B7817F846083BFAB
:1035200083B7816083BF7894889583B78E7F83BF8C
:103530000FB6F894A8958091600088618093600030
:10354000109260000FBE8091B301882309F4F7CE7A
:103550000E94AD16E5EBF1E08191811106C0AFEB61
:10356000B1E0AE17BF07C1F7EACE80E189BD82E1C5
:1035700089BD09B400FEFDCF8091D8008F7D809376
:10358000D8008091E00082608093E0008091E000AC
:1035900081FDFCCF0E94C60CD2CE9813EBCE0E94C8
:1035A0008A168091F603882309F423CFD12C8091C9
:1035B000F4039091F5030E94B40FC29730F00E947B
:1035C000320B9093F5038093F4038091ED03909177
:1035D000EE03892B81F08091EC0381110CC00E94D5
:1035E000DE0A2091ED033091EE0380E061E070E0AF
:1035F0002115310539F58091F3038823F9F00E94F4
:10360000EF066D877E878F87988B8091EF0390916F
:10361000F003A091F103B091F2032D853E854F8513
:103620005889281B390B4A0B5B0BDA01C9018F3F04
:103630009F4FAF4FBF4710F40E94CC0AD110D7CE96
:10364000D8CE8F5F082F10E07B01082E02C0EE0C51
:10365000FF1C0A94E2F7A70142235323452B89F369
:103660009091EB0390FD43C09801369527953695D0
:103670002795922F8295880F80763FE1380F8093AF
:103680000E012093110130930F019093120124E653
:1036900030E047E050E06CE071E088E70E94281ECF
:1036A000892B09F0A8CFA80135E0440F551F3A95A2
:1036B000E1F78091EB0380FD22C045515E4F04E6A7
:1036C00010E020E230E060E488E70E94C01E892B11
:1036D00009F091CFE094F0948091ED039091EE0386
:1036E000E822F922F092EE03E092ED0384CF880FF6
:1036F000880F880F37E0380F20E093E0C0CFEBEC65
:10370000F1E080E2DF011D928A95E9F70AE311E01A
:1037100096E3A92E91E0B92E2EE3422E21E0522EFF
:10372000D801ED918D01D5016D915D01640F752F6B
:10373000711D65517E4FF0E0E553FE4F20E030E013
:1037400087E0682E621ACC24C394022E01C0CC0CF0
:103750000A94EAF74B0190E0D4018D914D018C2140
:10376000A62DA91BA770AD87B0E0782E0D8401C0EF
:10377000770C0A94EAF7B195A195B109A770BB2718
:1037800001C08695AA95EAF78729A0818A2B8083B4
:103790009F5F983009F72F5F3F4F319628303105F2
:1037A00079F64016510609F0BBCF04E610E020E29E
:1037B00030E04BEC51E087CF2531310508F447CE9E
:1037C0008F3F19F08F5F80934A04002359F00E94C5
:1037D00024069FEF10160CF491E0899F802D112490
:1037E00080934E04112359F00E94240691E0111693
:1037F0000CF09FEF899F802D112480934F048091BE
:103800004E04882309F423CEC0904F04CC2009F441
:103810001ECE0E941606811101C081E080934E04E5
:103820008C2D0E941606882319F080934F040FCE2A
:1038300081E0FBCF2135310508F41CCE8F3F19F014
:103840008F5F80934904DD2059F00E9444069FEF6A
:103850001D140CF491E0899F802D11248093500455
:10386000EE2059F00E94440691E01E140CF09FEFE8
:10387000899F802D112480935104809150048823C6
:1038800009F4F8CDE0905104EE2009F4F3CD0E9444
:103890001606811101C081E0809350048E2D0E9494
:1038A0001606882319F080935104E4CD81E0FBCF04
:1038B00078941F921FB61F9211248F939F93AF93FA
:1038C000BF938091000490910104A0910204B091F3
:1038D00003040196A11DB11D80930004909301047F
:1038E000A0930204B0930304BF91AF919F918F9175
:1038F0001F901FBE1F9018951F920F920FB60F9228
:1039000011242F933F934F935F936F937F938F93E4
:103910009F93AF93BF93EF93FF938091E10082FF5A
:1039200009C08091E20082FF05C08091E1008B7F99
:103930008093E1008091DA0080FF24C08091D8005C
:1039400080FF20C08091DA008E7F8093DA00809122
:10395000D90080FF9BC080E189BD82E189BD09B4A7
:1039600000FEFDCF81E08093B40180919001811130
:1039700009C00E94EC070E945B088091E20084600D
:103980008093E2008091E10080FF17C08091E20007
:1039900080FF13C08091E2008E7F8093E2008091CF
:1039A000E20080618093E2008091D8008062809381
:1039B000D80019BC85E08093B4018091E10084FFB8
:1039C00029C08091E20084FF25C080E189BD82E1A9
:1039D00089BD09B400FEFDCF8091D8008F7D809312
:1039E000D8008091E1008F7E8093E1008091E20019
:1039F0008F7E8093E2008091E20081608093E200FC
:103A000080918F01882309F447C084E08093B4013A
:103A10008091B4018091E10083FF27C08091E20092
:103A200083FF23C08091E100877F8093E10082E0E3
:103A30008093B40110928F018091E1008E7F80937A
:103A4000E1008091E2008E7F8093E2008091E200AD
:103A500080618093E20042E060E080E00E94240800
:103A60008091F00088608093F000FF91EF91BF910A
:103A7000AF919F918F917F916F915F914F913F9106
:103A80002F910F900FBE0F901F90189519BC109298
:103A9000B4011092900176CF8091E30087FF02C0BD
:103AA00083E0B4CF81E0B2CF1F920F920FB60F9296
:103AB0001124FF920F931F932F933F934F935F9384
:103AC0006F937F938F939F93AF93BF93CF93DF9326
:103AD000EF93FF9309EE10E0F8018081C091EC00B4
:103AE000C795CC27C7958F70FC2EF82A1082C0EF9F
:103AF000D0E08881877F888378940E94030DF80145
:103B00001082888188608883CF2DCF70C083FF9119
:103B1000EF91DF91CF91BF91AF919F918F917F9165
:103B20006F915F914F913F912F911F910F91FF9056
:103B30000F900FBE0F901F901895FF920F931F9339
:103B4000CF93DF93182FEB011092BC0084EA80938F
:103B5000BC000E94320B082FF92E8091BC0087FF19
:103B600028C08091B900887F883029F08091B90001
:103B7000887F8031A1F51093BB0084E88093BC005E
:103B80000E94320B182F092F8091BC0087FF1FC0A5
:103B90002091B900287F80E090E0283199F081E001
:103BA00090E0203411F480E090E0919581959109A6
:103BB00009C0802F9F2D0E94B40FC817D90768F63F
:103BC0008EEF9FEFCDB7DEB7E5E00C940E21812F8D
:103BD000902F0E94B40FC817D907B0F6F1CF8FEF1E
:103BE0009FEFF0CF1092B9008CE08093B800089559
:103BF0000F931F93CF93DF93EB018093BB0084E877
:103C00008093BC000E94320B182F092F8091BC00BA
:103C100087FF11C02091B900287F81E090E0283211
:103C200011F480E090E0919581959109DF91CF9119
:103C30001F910F910895CF3FDC0741F3812F902F03
:103C40000E94B40FC817D90708F78EEF9FEFEECF89
:103C5000A0E0B0E0EEE2FEE10C94EA20782E5B01F9
:103C60006A0189010E94320B4C010431110560F197
:103C70000F3F100769F1C80164E170E00E94D12094
:103C8000F62EE72E6F2D7E2D872D0E949D1DEC01B7
:103C900097FF09C00F3F1007A9F3C4010E94B40F9A
:103CA0000817190778F77501CA0CDB1CEC14FD0422
:103CB00011F0D7FF10C084E98093BC00CE01CDB7CE
:103CC000DEB7EDE00C940621FF24F394E12CDACF6B
:103CD00085E0F82EFBCFB801F70181917F010E94AA
:103CE000F81DEC01E3CFA0E0B0E0E9E7FEE10C94C1
:103CF000EA20782E5B016A0189010E94320B4C0197
:103D00000431110560F10F3F100769F1C80164E14A
:103D100070E00E94D120F62EE72E6F2D7E2D872D8C
:103D20000E949D1DEC0197FF09C00F3F1007A9F3EA
:103D3000C4010E94B40F0817190778F77501CA0C5F
:103D4000DB1CEC14FD0411F0D7FF10C084E9809354
:103D5000BC00CE01CDB7DEB7EDE00C940621FF2408
:103D6000F394E12CDACF85E0F82EFBCFF7018491B4
:103D7000B8010E94F81DEC01FFEFEF1AFF0AE1CF36
:103D8000A0E0B0E0E6ECFEE10C94E920682E962E6F
:103D90005A01690178010E94320B782E892E043174
:103DA000110530F10F3F100731F1C80164E170E0F7
:103DB0000E94D120162F072F612F702F862D0E9471
:103DC0009D1DEC0197FF19C0FFEFEF16FF06A1F351
:103DD000872D982D0E94B40FE816F90668F784E93C
:103DE0008093BC00CE01CDB7DEB7EEE00C94052188
:103DF00011E000E0E1CF15E0FCCFB701892D0E9472
:103E0000F81DEC018501CA0CDB1C0C151D0539F3EE
:103E1000D7FDE5CFB701F80181918F010E94F81D10
:103E2000EC01F3CF8EE14A9B03C081508111FBCF9F
:103E30004A9BFECF08955A9880E28A95F1F75A9AE4
:103E40000895FC013BE03A95F1F798E020E080E02E
:103E500031E040E14A95F1F7880F4A9B02C081604A
:103E6000232742E04A95F1F7000040E14A95F1F737
:103E700091509111EECF90E19A95F1F799B132E01E
:103E80003A95F1F7000040E14A95F1F792FB992746
:103E900090F992272081920F90830895A1E0B0E0DD
:103EA000E4E5FFE10C94F12019828C017C01E60E1F
:103EB000F11C0E151F0541F481E09981911180E0FC
:103EC0002196E6E00C940D210E94121FCE0101966E
:103ED0000E94211FF80181938F01EBCF529A5A9AC9
:103EE000089552985A9AEA9AE9E6F0E080818F7C28
:103EF000808308956150770B91E001C0990F6A9516
:103F0000EAF7692F90E021E0611108C0992399F048
:103F10005A9A80E28A95F1F75A980895362F3823F5
:103F2000332339F05A9A922730E23A95F1F76695A1
:103F3000EBCF5A98F9CF5A98ECCFFF920F931F937B
:103F4000CF93DF93EC018C01060F111DC017D10731
:103F500029F4CDB7DEB7E5E00C940E21F9900E946C
:103F60001B1F68E08F2D0E947A1FF0CF1F920F92C7
:103F70000FB60F9211240F931F932F933F934F93DC
:103F80005F936F937F938F939F93AF93BF93EF93C1
:103F9000FF93CF93DF930F92CDB7DEB719820E94C4
:103FA000121FCE0101960E94211F082F069506952B
:103FB0000695982F92959570202F2570920F292F96
:103FC000237096959695920F982797708981892BE3
:103FD00081115CC0043008F059C080E18A95F1F786
:103FE0005A9A529A82E08A95F1F700C05A9888E06E
:103FF000089F80011124D801AD5EBE4F1696ED9149
:10400000FC9117973097A9F060913E0170913F01A4
:1040100014962D913C911597260F371F11968D916F
:104020009C911297680F791F13964C9113978C915E
:104030000995F801ED5EFE4F6381662351F02091F2
:104040003E0130913F0184819581820F931F0E9430
:104050009D1F0E941B1F80E18A95F1F75A98529884
:104060005A9A80E18A95F1F7F801ED5EFE4F608182
:10407000662351F020913E0130913F018181928170
:10408000820F931F0E944E1F0E94121F0F90DF91FC
:10409000CF91FF91EF91BF91AF919F918F917F91C0
:1040A0006F915F914F913F912F911F910F910F90C1
:1040B0000FBE0F901F9018950F931F93CF93DF9310
:1040C0008C0104970CF065C0F894529A5A9885E0D8
:1040D0008A95F1F70000C02FC695C570802F8570B6
:1040E000C80F8C2F8370C695C69593E0000F111FE3
:1040F0009A95E1F7C80FC8018C2BEC010E941B1F99
:1041000000C068E08C2F0E947A1F90E19A95F1F729
:1041100052985A9A4A9B35C087E090E04A9933C03A
:10412000F801ED5EFE4F6381662361F020913E0150
:1041300030913F0184819581820F931F0E944E1F11
:10414000882321F10E94121F80E28A95F1F75A9884
:10415000529A90E19A95F1F7F801ED5EFE4F608179
:10416000662351F020913E0130913F01818192817F
:10417000820F931F0E949D1F0E941B1F789481E055
:1041800009C000C0C7CF0197009749F4529A5A9AC4
:10419000789480E0DF91CF911F910F91089500C036
:1041A000BDCFAA1BBB1B51E107C0AA1FBB1FA6178F
:1041B000B70710F0A61BB70B881F991F5A95A9F7D0
:1041C00080959095BC01CD0108952F923F924F921A
:1041D0005F926F927F928F929F92AF92BF92CF9297
:1041E000DF92EF92FF920F931F93CF93DF93CDB7A0
:1041F000DEB7CA1BDB0B0FB6F894DEBF0FBECDBF18
:1042000009942A88398848885F846E847D848C84E8
:104210009B84AA84B984C884DF80EE80FD800C81F1
:104220001B81AA81B981CE0FD11D0FB6F894DEBFD4
:104230000FBECDBFED01089597FB072E16F4009435
:1042400007D077FD09D00E94D12007FC05D03EF4AD
:10425000909581959F4F0895709561957F4F089532
:10426000EE0FFF1F0590F491E02D0994FB01DC0196
:1042700004C08D910190801921F441505040C8F73D
:10428000881B990B0895FB01DC0102C001900D927F
:1042900041505040D8F70895F999FECF92BD81BDA5
:1042A000F89A992780B50895A8E1B0E042E050E07F
:1042B0000C949021DC01A40FB51F4150504048F0F0
:1042C000CB01840F951F2E910E946B2141505040CD
:1042D000D0F70895262FF999FECF92BD81BDF89AA7
:1042E000019700B4021639F01FBA20BD0FB6F8943A
:1042F000FA9AF99A0FBE08950396272F0E946B2110
:104300000E946A21252F0E946B21242F0C946B217F
:104310000196272F0E946B210C946A21DC01CB01AE
:10432000FC01F999FECF06C0F2BDE1BDF89A3196C5
:1043300000B40D9241505040B8F70895F894FFCF63
:104340008F0B920B980BAD0BAD0BAD0BAD0BAD0BFB
:10435000AD0BAD0BAD0B9B0BA00BA40BAA0BBB0BBA
:10436000C10BC50BE00D060E0C0E060E0C0E5F0EFB
:10437000810E0C0E7F0F8C0FEA10EE10E010E6108D
:10438000F210F610FA106E126E12A812A812411353
:104390005E13D412D4126313EF1300140014D2115D
:1043A0003D12DA11A411A811DE11AC11E211EE11C7
:1043B000B8113612BC11F211C011F6111E12C4113F
:1043C000FA112512CA1100120812B011E611B41127
:1043D000EA11CE11041214122E1234129E11D611AB
:0243E000441285
:1043E20001013F07130942072A0931090021007F11
:1043F200220003000000010000000000000005018F
:1044020000000004060000000000006697C6343574
:10441200F6F7313332360008101818100800040479
:10442200E200E900EA00B500B600B700CD00830162
:10443200CC008A0192019401210223022402250266
:10444200260227022A02B300B4006F0070009F0107
:06445200CB019F02A00255
:00000001FF
